:020000040800F2
:1000000040110020B1270008152300082123000813
:100010002D230008392300084523000800000000B4
:100020000000000000000000000000005123000854
:100030005D2300080000000069230008E522000895
:1000400001280008012800080128000801280008EC
:1000500001280008012800080128000801280008DC
:1000600001280008012800080128000801280008CC
:1000700001280008012800080128000801280008BC
:1000800001280008012800080128000801280008AC
:10009000012800080128000801280008012800089C
:1000A000012800080128000801280008012800088C
:1000B000012800080128000801280008012800087C
:1000C000012800080128000801280008012800086C
:1000D000012800080128000801280008012800085C
:1000E00001280008012800088523000801280008CD
:1000F000012800080128000801280008012800083C
:10010000012800080128000801280008012800082B
:10011000012800080128000801280008012800081B
:10012000012800080128000801280008012800080B
:1001300001280008012800080128000801280008FB
:10014000012800080128000801280008752300087C
:1001500001280008012800080128000801280008DB
:1001600001280008012800080128000801280008CB
:1001700001280008012800080128000801280008BB
:08018000012800080128000815
:1001880080B582B000AF78607B683C4A934208D162
:100198000120012102F0B2FE0120002102F0AEFE92
:1001A80068E07B68364A934208D10220012102F0B8
:1001B800A5FE0220002102F0A1FE5BE07B68314A27
:1001C800934208D10420012102F098FE0420002166
:1001D80002F094FE4EE07B682B4A934208D1082037
:1001E800012102F08BFE0820002102F087FE41E089
:1001F8007B68264A934208D11020012102F07EFE36
:100208001020002102F07AFE34E07B68204A9342F5
:1002180008D12020012102F071FE2020002102F0E7
:100228006DFE27E07B681B4A934208D140200121DC
:1002380002F064FE4020002102F060FE1AE07B68B4
:10024800154A934208D18020012102F057FE8020F0
:10025800002102F053FE0DE07B68104A934209D159
:100268004FF48070012102F049FE4FF480700021A4
:1002780002F044FE0837BD4680BD00BF00000240C2
:100288000004024000080240000C02400010024036
:100298000014024000180240001C024000200240E6
:1002A80080B487B000AF7860396000237B61002399
:1002B8003B610023FB6000237B6176E07B690122C0
:1002C80002FA03F33B613B681A683B691340FB6021
:1002D800FA683B699A4265D17B681A687B695B005A
:1002E800194603238B40DB431A407B681A607B68FE
:1002F8001A683B681B7919467B695B0001FA03F3AE
:100308001A437B681A603B681B79012B03D03B6852
:100318001B79022B2ED17B689A687B695B00194692
:1003280003238B40DB431A407B689A607B689A689A
:100338003B685B7919467B695B0001FA03F31A4352
:100348007B689A607B685A687B699BB2194601236F
:100358008B40DB431A407B685A607B685B683A686D
:10036800927911467A6992B201FA02F292B21A436C
:100378007B685A607B68DA687B699BB25B00032103
:1003880001FA03F3DB431A407B68DA607B68DA68BA
:100398003B68DB7919467B695B0001FA03F31A4372
:1003A8007B68DA607B6901337B617B690F2B85D9B8
:1003B8001C37BD465DF8047B704700BF80B483B02E
:1003C80000AF78607B684FF6FF721A607B68002286
:1003D8001A717B6800225A717B6800229A717B68C7
:1003E8000022DA710C37BD465DF8047B704700BF08
:1003F80080B485B000AF78600B467B804FF48033C3
:10040800FB607A88FB681343FB60FA687B68DA61F3
:100418007A887B68DA61FA687B68DA617B68DB690D
:10042800FB607B68DB69FB601437BD465DF8047BC5
:10043800704700BF80B485B000AF78600B467B8002
:100448000023FB737B681A697B881340002B02D05A
:100458000123FB7301E00023FB73FB7B1846143771
:10046800BD465DF8047B704780B483B000AF786008
:100478007B681B699BB218460C37BD465DF8047B48
:10048800704700BF80B485B000AF78600B467B80B2
:100498000023FB737B685A697B881340002B02D0CA
:1004A8000123FB7301E00023FB73FB7B1846143721
:1004B800BD465DF8047B704780B483B000AF7860B8
:1004C8007B685B699BB218460C37BD465DF8047BB8
:1004D800704700BF80B483B000AF78600B467B8064
:1004E8007B687A881A830C37BD465DF8047B7047B1
:1004F80080B483B000AF78600B467B807B687A88D5
:100508005A830C37BD465DF8047B704780B483B0CE
:1005180000AF78600B467B8013467B707B78002B9E
:1005280003D07B687A881A8302E07B687A885A83CA
:100538000C37BD465DF8047B704700BF80B483B0BC
:1005480000AF78600B467B807A887B685A610C37ED
:10055800BD465DF8047B704780B483B000AF786017
:100568000B467B807B685A697B885A407B685A6156
:100578000C37BD465DF8047B704700BF80B485B07A
:1005880000AF78600B467B8013467B700023FB60CE
:100598000023BB607B787A8802F0070292009340C0
:1005A800FB607B88DB089BB218467B88DB089BB224
:1005B8001A467B68083253F822207B8803F0070329
:1005C8009B0019460F238B40DB4302EA03017B683B
:1005D80000F1080243F822107B88DB089BB21A4618
:1005E8007B68083253F82220FB681343BB607B8882
:1005F800DB089BB21A467B680832B96843F82210B8
:100608001437BD465DF8047B704700BF80B584B0E1
:1006180000AF786039600023FB733B685B78092B77
:1006280039D801A252F823F081060008950600087F
:100638009F0600088B0600089F060008630600084E
:10064800590600089F060008770600086D0600088E
:100658007868396800F036F922E07868396800F07F
:100668000DFA1DE07868396800F046FA18E07868F5
:10067800396800F0BBFA13E07868396800F0E6FAE8
:100688000EE07868396800F009FB09E07868396895
:1006980000F06AFB04E07868396800F0D5FB00BF19
:1006A800FB7B18461037BD4680BD00BF80B584B0BF
:1006B80000AF786039600023FB737B6893F81231D0
:1006C800032B1CD13B689B88DBB2012B11D87B68BC
:1006D800D3F8E0359B687868396898473B68DB88C9
:1006E800002B0BD1FB7B002B08D1786804F050F964
:1006F8000AE07868396800F0A7FB05E004E078684C
:10070800396800F0A1FB00BFFB7B18461037BD46D7
:1007180080BD00BF80B584B000AF78603960002329
:10072800FB733B689B88BB733B685B78012B39D0B4
:10073800032B02D0002B6BD0BCE07B6893F81231FE
:10074800022B02D0032B0DD026E0BB7B002B08D058
:10075800BB7B802B05D0BB7B7868194604F060FF13
:100768001FE01EE03B685B88002B0AD1BB7B002B97
:1007780007D0BB7B802B04D0BB7B7868194604F07C
:100788004FFF7B68D3F8E0359B68786839689847ED
:10079800786804F0FDF804E07868396800F054FBE4
:1007A80000BF87E07B6893F81231022B02D0032B3D
:1007B8000DD027E0BB7B002B08D0BB7B802B05D05E
:1007C800BB7B7868194604F02BFF20E01FE03B68EC
:1007D8005B88002B15D1BB7B002B0ED0BB7B802BFD
:1007E8000BD0BB7B7868194604F054FF7B68D3F8BC
:1007F800E0359B68786839689847786804F0C8F8E5
:1008080005E004E07868396800F01EFB00BF51E09D
:100818007B6893F81231022B02D0032B0DD043E0F2
:10082800BB7B002B08D0BB7B802B05D0BB7B7868BB
:10083800194604F0F5FE3CE03BE0BB7B5BB2002BC5
:1008480015DABB7B03F07F02796813469B001344DB
:10085800DB000B4403F58C739B78002B03D0184BFB
:1008680001221A601AE0164B00221A6016E0BB7BC0
:100878005BB2002B12DBBA7B796813469B001344EA
:10088800DB000B4403F55C739B78002B03D00C4B07
:1008980001221A6002E00A4B00221A6078680849AF
:1008A800022204F00DF804E07868396800F0CCFA08
:1008B80000BF00BFFB7B18461037BD4680BD00BF98
:1008C8004011002080B584B000AF786039603B6883
:1008D8005B881B0A9BB2013B062B00F2B18001A288
:1008E80052F823F0090900083B09000865090008C7
:1008F800490A0008490A0008350A00083F0A0008A2
:100908007B68D3F8E8351B687A68917807F10A02A2
:10091800084611469847F8603B68DB88402B04D0AE
:100928007B6893F81231012B02D108237B818CE07C
:100938008BE07B68D3F8E0359B6A7A68917807F199
:100948000A02084611469847F860FB6801330222FC
:100958001A707B68FA68C3F8EC2576E03B685B8818
:10096800DBB2052B5CD801A252F823F08D090008F0
:10097800A7090008C1090008DB090008F5090008F3
:100988000F0A00087B68D3F8E8355B687A689178C5
:1009980007F10A02084611469847F86045E07B6867
:1009A800D3F8E8359B687A68917807F10A02084617
:1009B80011469847F86038E07B68D3F8E835DB687B
:1009C8007A68917807F10A02084611469847F86054
:1009D8002BE07B68D3F8E8351B697A68917807F1D2
:1009E8000A02084611469847F8601EE07B68D3F86B
:1009F800E8355B697A68917807F10A02084611467A
:100A08009847F86011E07B68D3F8E8359B697A6805
:100A1800917807F10A02084611469847F86004E001
:100A28007868396800F010FA24E00EE078683968D0
:100A380000F00AFA1EE07868396800F005FA19E053
:100A48007868396800F000FA14E07B89002B11D02F
:100A58003B68DB88002B0DD03B68DA887B899342A2
:100A680028BF13469BB27B817B897868F9681A4650
:100A780003F026FF1037BD4680BD00BF80B584B0A7
:100A880000AF786039603B689B88002B2DD13B68AC
:100A9800DB88002B29D13B685B88DBB203F07F033E
:100AA800FB737B6893F81231032B04D1786839689B
:100AB80000F0CAF918E07B68FA7B83F81321FB7B06
:100AC8007868194604F03AFE786803F061FFFB7B0A
:100AD800002B04D07B68022283F8122104E07B6893
:100AE800012283F8122104E003E07868396800F0F5
:100AF800ABF91037BD4680BD80B582B000AF7860D5
:100B080039603B685B88DAB2374B1A70364B1B7812
:100B1800012B04D97868396800F096F960E07B68A1
:100B280093F81231022B02D0032B1BD053E02E4B2B
:100B38001B78002B12D02C4B1A787B6883F8102175
:100B48007B68032283F81221274B1B7878681946A3
:100B580001F0DEFD786803F01BFF41E0786803F0E0
:100B680017FF3DE0204B1B78002B12D17B68022237
:100B780083F812211C4B1A787B6883F810211A4BD2
:100B88001B787868194601F0DBFD786803F000FFF0
:100B980020E07B6893F81021134B1B789A4215D0FC
:100BA8007B6893F810317868194601F0C9FD0E4B3F
:100BB8001A787B6883F810210B4B1B7878681946E4
:100BC80001F0A6FD786803F0E3FE03E0786803F01F
:100BD800DFFE05E004E07868396800F035F900BF09
:100BE8000837BD4680BD00BF4C11002080B582B0DB
:100BF80000AF786039603B68DB88012B04D07868E7
:100C0800396800F021F91BE07B6893F81231022B58
:100C180002D0032B06D00EE078680B49012203F0BE
:100C28004FFE0DE07B6803F588737868194601224A
:100C380003F046FE04E07868396800F005F900BF63
:100C48000837BD4680BD00BF4411002080B582B082
:100C580000AF786039607B6893F81231023B012B52
:100C680011D87B68D3F81431002B03D00A4B032228
:100C78001A6002E0084B01221A60786806490122CE
:100C880003F01EFE04E07868396800F0DDF800BF64
:100C98000837BD4680BD00BF4811002080B584B02C
:100CA80000AF786039600023FB733B685B88012BD9
:100CB8000ED17B680122C3F814217B68D3F8E03594
:100CC8009B68786839689847786803F061FE48E05F
:100CD8003B685B88022B44D13B689B88DBB2002BC6
:100CE8003FD17B681B695B68BB603B689B881B0ABC
:100CF8009BB2FB73FB7B013B042B2BD801A252F860
:100D080023F000BF210D00082D0D0008390D000843
:100D1800450D0008510D00083B7A012262F30613C5
:100D28003B7217E03B7A022262F306133B7211E032
:100D38003B7A032262F306133B720BE03B7A0422F0
:100D480062F306133B7205E03B7A052262F3061351
:100D58003B7200BF7B681B69BA685A60786803F009
:100D680017FE1037BD4680BD80B582B000AF7860F1
:100D780039607B6893F81231023B012B13D83B682A
:100D88005B88012B0ED17B680022C3F814217B6895
:100D9800D3F8E0359B68786839689847786803F035
:100DA800F7FD05E004E07868396800F04DF800BF09
:100DB8000837BD4680BD00BF80B483B000AF7860FF
:100DC80039607B6893F8C8253B681A707B6893F88C
:100DD800C9253B685A707B6893F8CA359AB27B6814
:100DE80093F8CB359BB21B029BB213449AB23B6873
:100DF8005A807B6893F8CC359AB27B6893F8CD35E6
:100E08009BB21B029BB213449AB23B689A807B68E0
:100E180093F8CE359AB27B6893F8CF359BB21B0214
:100E28009BB213449AB23B68DA803B68DB881A4667
:100E38007B68C3F83C217B68012283F811210C37B9
:100E4800BD465DF8047B704780B582B000AF78601E
:100E580039603B681B78DBB25BB2002B04DA786838
:100E6800802104F0DDFB0CE03B68DB88002B04D11B
:100E78007868802104F0D4FB03E07868002104F04E
:100E8800CFFB786803F048FB0837BD4680BD00BF3C
:100E980080B586B000AFF860B9607A600023FB7552
:100EA800FB68002B33D0F86800F034F803460133B0
:100EB8009BB25B009AB27B681A80FB7D5A1CFA755C
:100EC8001A46BB6813447A681288D2B21A70FB7D3E
:100ED8005A1CFA751A46BB68134403221A7012E0AA
:100EE800FB7D5A1CFA751A46BB681A44FB68591CE4
:100EF800F9601B781370FB7D5A1CFA751A46BB689B
:100F0800134400221A70FB681B78002BE8D11837AD
:100F1800BD4680BD80B485B000AF78600023FB7308
:100F280005E0FB7B0133FB737B6801337B607B68E7
:100F38001B78002BF5D1FB7B18461437BD465DF8AE
:100F4800047B704780B400AF00231846BD465DF8A7
:100F5800047B704780B400AF00231846BD465DF897
:100F6800047B704780B485B000AFF860B9607A60E0
:100F7800FB68232B74D801A252F823F069100008EB
:100F88006910000869100008691000086910000855
:100F98006910000869100008691000086910000845
:100FA8006910000869100008691000086910000835
:100FB8006910000869100008691000086910000825
:100FC8006910000869100008691000086910000815
:100FD8006910000869100008691000086910000805
:100FE80069100008691000086910000869100008F5
:100FF80069100008691000086910000869100008E5
:10100800151000086910000869100008184B1B68C3
:10101800DAB2BB681A70BB680133154A1268120A43
:10102800D2B21A70BB680233114A1268120CD2B2DB
:101038001A70BB6803330E4A1268120ED2B21A70C5
:10104800BB6804330A4A12791A70BB680533084A28
:1010580052791A70BB680633054A92791A7000E013
:1010680000BF002318461437BD465DF8047B70475F
:101078000000002080B582B000AF0346FB71FB1D65
:101088001846012100F02AF80837BD4680BD00BF88
:1010980080B584B000AF78600023FB6002E0FB6895
:1010A8000133FB607A68FB6813441B78002BF6D188
:1010B8007868F96800F012F81037BD4680BD00BFA7
:1010C80080B582B000AF786039603B6878681946AF
:1010D80000F004F80837BD4680BD00BF80B485B075
:1010E80000AF786039600023FB6017E0114B1B6884
:1010F8007968FA680A4411780F4AD1540D4B1B6875
:1011080001330C4A1360FB680133FB60094B1B6811
:10111800B3F5006F02D1074B00221A60FA683B68EA
:101128009A42E3D3002318461437BD465DF8047B82
:10113800704700BF54110020BC18002080B485B04F
:1011480000AF786039600023FB601EE0144B1B6819
:101158007968FA680A441178124AD154104B1B680E
:1011680001330F4A13600E4B1B68802B02D10C4BC6
:1011780000221A600A4B1A680B4B1B689A4201D16D
:10118800022307E0FB680133FB60FA683B689A4278
:10119800DCD3002318461437BD465DF8047B70473E
:1011A80034120020A01100202012002080B483B047
:1011B80000AF7860104B1A68104B1B689A4201D137
:1011C800002312E00D4B1B680D4AD25C7B681A7035
:1011D8000A4B1B680133094A1360084B1B68802BB4
:1011E80002D1064B00221A60012318460C37BD466F
:1011F8005DF8047B704700BF3412002020120020E5
:10120800A011002080B485B000AF7860424B1A6806
:10121800424B1B689A4201D1002376E013E03F4B12
:101228001B6801333D4A13603C4B1B68802B02D17D
:101238003A4B00221A60384B1A68384B1B689A429E
:1012480001D1002361E0354B1B68354AD35C002B84
:10125800E5D0324B1B68324AD35C0A2BDFD02F4BC8
:101268001B682F4AD35C0D2BD9D00023FB60FB6889
:101278007A681344F968294A12680A4428498A5C3A
:101288001A70FB680133FB60244B1A68FB6813442F
:10129800802B03D1214B1B685B42FB601F4B1A68F4
:1012A800FB681A441C4B1B689A4201D100232CE0AE
:1012B8001A4B1A68FB681344194AD35C002B0FD0E9
:1012C800164B1A68FB681344154AD35C0A2B07D0DF
:1012D800124B1A68FB681344114AD35C0D2BC6D114
:1012E800FB687A68134400221A700C4B1A68FB6872
:1012F80013440A4A1360094B1B687F2B04D9074B18
:101308001B68803B054A1360FB6818461437BD46C6
:101318005DF8047B704700BF3412002020120020C3
:10132800A011002080B400AFBD465DF8047B704773
:1013380080B586B000AF786000237B61786802F0E2
:1013480001FB0346002B00F09C80786802F01EFB2E
:1013580003463B613B69002B01D1002392E0BB7C33
:1013680003F00803DBB2002B06D0786800F012FA0D
:1013780002467B6913437B61BB7C03F00403DBB249
:10138800002B06D0786800F00FF902467B691343FA
:101398007B613B7C03F00203DBB2002B09D0002306
:1013A800FB603B7B43F002033B737B68DB68FA68B6
:1013B8005A61FB7C23F07F03DBB2002B06D07868F0
:1013C80000F064F802467B6913437B617B7C03F081
:1013D8000803DBB2002B06D0786800F097F80246C5
:1013E8007B6913437B613B7C03F00803DBB2002B72
:1013F80006D0786800F08AFA02467B6913437B615D
:101408003B7C03F01003DBB2002B06D0786800F0B9
:1014180097FA02467B6913437B617B7C03F01003D8
:10142800DBB2002B06D0786800F07EFB02467B69B1
:1014380013437B617B7C03F02003DBB2002B06D0D7
:10144800786800F00DFC02467B6913437B61BB7C26
:1014580003F01003DBB2002B06D0786800F03CFCE8
:1014680002467B6913437B61BB7C03F02003DBB23C
:10147800002B06D0786800F049FC02467B691343CC
:101488007B617B6918461837BD4680BD80B586B03C
:1014980000AF78607B689B7A002B11D07B6803F5DE
:1014A80086731B68FB603B7B6FF341033B733B7B9D
:1014B8006FF300033B737B68D3F80C31FA681A604A
:1014C80000233B613B7C43F001033B747B681B6951
:1014D8007A68126951683A69D2430A405A600A4BDD
:1014E8001B689B697868984700237B61FB7D43F004
:1014F8008003FB757B68DB687A695A6101231846AB
:101508001837BD4680BD00BF6400002080B586B096
:1015180000AF7860224B1B685B69786898477B68E6
:101528001B699B68FB6000237B617B7D43F008039C
:101538007B757B68DB687A695A617B689B7A002BCC
:1015480029D03B7B03F00103DBB2002B23D000231F
:101558003B613B7C43F001033B747B68D3F80C315F
:101568007A68D2F80C2111683A690A431A603B7C00
:1015780043F002033B747B68D3F80C317A68D2F8E5
:101588000C2111683A690A431A60064A054B1B691F
:1015980043F006031361012318461837BD4680BD82
:1015A8006400002000ED00E080B586B000AF7860F0
:1015B80000233B610023BB60786802F097FF7861E5
:1015C800DCE07B6903F00103002B00F0D1803B696C
:1015D800DBB27868194600F0B3FB0346BB603B7A80
:1015E80003F00103DBB2002B32D03B69012202FA7F
:1015F80003F3FB607B681B697A681269516BFA68B0
:10160800D2430A405A630023BB603B7A43F001038C
:101618003B727A683B6904339B0013449B68BA6841
:101628009A605B4B1B685B683A69D2B2786811466E
:1016380098477B68DB78012B0AD13B69002B07D1DF
:101648007B6893F81131042B02D1786802F064FFAB
:101658003B7A03F00403DBB2002B0DD00023BB6000
:101668003B7A43F004033B727A683B6904339B007E
:1016780013449B68BA689A603B7A03F00803DBB2AC
:10168800002B0DD00023BB603B7A43F008033B726C
:101698007A683B6904339B0013449B68BA689A6074
:1016A8003B7A03F01003DBB2002B0DD00023BB60A4
:1016B8003B7A43F010033B727A683B6904339B0022
:1016C80013449B68BA689A603B7A03F02003DBB244
:1016D800002B0DD00023BB603B7A43F020033B7204
:1016E8007A683B6904339B0013449B68BA689A6024
:1016F8003B7A03F04003DBB2002B0DD00023BB6024
:101708003B7A43F040033B727A683B6904339B00A1
:1017180013449B68BA689A603B7A03F00203DBB211
:10172800002B0DD00023BB603B7A43F002033B72D1
:101738007A683B6904339B0013449B68BA689A60D3
:101748003B7A23F07F03DBB2002B11D0786839692C
:1017580000F078F90023BB603B7A43F080033B72CA
:101768007A683B6904339B0013449B68BA689A60A3
:101778003B6901333B617B695B087B617B69002BBB
:101788007FF41FAF012318461837BD4680BD00BF40
:101798006400002080B586B000AF786000233B610C
:1017A8000023FB60786802F06FFE7861A3E07B6934
:1017B80003F00103002B00F098803B69DBB27868E6
:1017C800194602F077FE0346FB603B7B03F00103FA
:1017D800DBB2002B48D00023FB603B7B43F00103C6
:1017E8003B737A683B6914339B0013445B68FA685F
:1017F8009A607B68DB78012B1FD17A683B691433C8
:101808009B0013445B681B69BB6079683A6913469F
:101818009B001344DB000B4403F55E731B68BA6836
:10182800C2F31202991A78683A6913469B00134466
:10183800DB00034403F562731960334B1B681B68B4
:101848003A69D2B27868114698477B68DB78012BF1
:101858000AD13B69002B07D17B6893F81131052B1E
:1018680002D1786802F058FE3B7B03F00203DBB23A
:10187800002B0DD00023FB603B7B43F002033B733E
:101888007A683B6914339B0013445B68FA689A6072
:101898003B7B03F00403DBB2002B0DD00023FB607D
:1018A8003B7B43F004033B737A683B6914339B002A
:1018B80013445B68FA689A603B7B03F00803DBB269
:1018C800002B12D0104B1B689B6878689847002340
:1018D800FB603B7B43F008033B737A683B69143336
:1018E8009B0013445B68FA689A603B6901333B616B
:1018F8007B695B087B617B69002B7FF458AF012310
:1019080018461837BD4680BD6400002080B584B0F5
:1019180000AF7860094B1B68DB687868984700233C
:10192800FB603B7B43F008033B737B68DB68FA682A
:101938005A61012318461037BD4680BD6400002057
:1019480080B586B000AF786000233B613B7C43F0F4
:1019580010033B747B68DB687A68D26891693A69DE
:10196800D2430A409A617B68DB681B6AFB603B7B59
:10197800C3F30303DBB21A4613469B001344DB0090
:1019880003F55C737A6813447B61BB7BC3F3430341
:10199800DBB2013B052B47D801A252F823F000BF68
:1019A800311A0008C1190008311A0008311A000854
:1019B800311A00080D1A0008BA8947F6F073134067
:1019C8009BB2002B1DD07B69DA68BB89C3F30A136D
:1019D8009BB2786811461A4601F0FAFC7B69DB680D
:1019E800BA89C2F30A1292B21A447B69DA607B6937
:1019F8009B69BA89C2F30A1292B21A447B699A6146
:101A080013E012E07B6803F5B96378681946082289
:101A180001F0DEFC7B699B69BA89C2F30A1292B2B3
:101A28001A447B699A6100E000BF7B68DB687A68CA
:101A3800D26891693A690A439A61012318461837AE
:101A4800BD4680BD80B586B000AF786039600023A0
:101A58007B610023BB603A6813469B001344DB009C
:101A680003F58C737A681344FB60FB685A69FB685A
:101A78009B69D31A7B61FB689A687B699A4202D298
:101A8800FB689B687B617B6903339B083B617A68D1
:101A98003B6804339B0013449B689B69BB602EE042
:101AA800FB685A69FB689B69D31A7B61FB689A6873
:101AB8007B699A4202D2FB689B687B617B6903332E
:101AC8009B083B61FB68D9683B68DAB27B699BB2CB
:101AD800786801F041FCFB68DA687B691A44FB68A6
:101AE800DA60FB689A697B691A44FB689A617A68CC
:101AF8003B6804339B0013449B689B69BB603B892C
:101B08001A463B699A4209D9FB689A69FB685B697E
:101B18009A4203D2FB685B69002BC1D101231846A6
:101B28001837BD4680BD00BF80B58AB000AF786069
:101B380000233B6100233B620023FB610023BB6160
:101B480000237B610023FB603B7C43F001033B7473
:101B58007B681B697A68126951683A69D2430A40FE
:101B68005A607868002101F03FFE00237B6212E092
:101B78007A687B6A04339B0013449B68FF229A604F
:101B88007A687B6A14339B0013445B68FF229A606F
:101B98007B6A01337B627B685B781A467B6A9A4270
:101BA800E6D87B681B694FF0FF329A6101233B84BA
:101BB80001237B847B681B693A6ADA613B7F43F0C7
:101BC80008033B773B7F43F001033B773B7F43F0C0
:101BD80004033B773B7F43F002033B777B681B6939
:101BE800FA695A613B7E43F001033B763B7E43F042
:101BF80008033B763B7E43F002033B763B7E43F093
:101C080004033B763B7E43F020033B767B681B69ED
:101C1800BA691A617B681B691B687B61BB8A6FF3B1
:101C28000A13BB827B681B697A691A60786802F0BC
:101C380073FC0023FB607B7B43F010037B737B68A2
:101C4800DB68FA685A61054B1B681B697868984716
:101C5800012318462837BD4680BD00BF6400002018
:101C680080B584B000AF7860786802F073F87B685C
:101C7800DB68DB68BB60786802F048F80346032B32
:101C88000CD17B6800229A707B684FF400729A80AE
:101C98007B7A092262F385037B720AE07B68012262
:101CA8009A707B6840229A807B7A052262F38503CA
:101CB8007B727B68DB68BA68DA600023FB607B7B39
:101CC80043F020037B737B68DB68FA685A61012361
:101CD80018461037BD4680BD80B584B000AF786027
:101CE8000023FB60084B1B68DB6978689847BB7B5F
:101CF80043F01003BB737B68DB68FA685A61012301
:101D080018461037BD4680BD6400002080B584B0F9
:101D180000AF78600023FB60084B1B681B6A78687B
:101D28009847BB7B43F02003BB737B68DB68FA688A
:101D38005A61012318461037BD4680BD6400002053
:101D480080B487B000AF78600B46FB707B681B6976
:101D58001B697B617B681B695B6B3B61FB783A693C
:101D680022FA03F3DB01DBB27A6913437B61FB7868
:101D78007A6804339B0013449B689A687B69134014
:101D8800FB60FB6818461C37BD465DF8047B70474E
:101D980080B483B000AF78600C37BD465DF8047B33
:101DA800704700BF80B483B000AF78600B46FB700B
:101DB8000C37BD465DF8047B704700BF80B584B022
:101DC80000AF78600120012101F002F84FF4D853E8
:101DD800BB6003237B7302233B730023BB73002385
:101DE800FB7307F1080320481946FEF759FA1E4805
:101DF80008210A22FEF7C2FB1B4809210A22FEF726
:101E0800BDFB19480B210A22FEF7B8FB16480C2126
:101E18000A22FEF7B3FB4FF48063BB600123BB7358
:101E28000123FB7303237B7307F108030E4819464C
:101E3800FEF736FA0C480A210A22FEF79FFB4FF4F8
:101E48008040012101F03CF88020012100F0DEFFF4
:101E58004FF08050012101F0ABF8012003F026F982
:101E68001037BD4680BD00BF0000024080B584B079
:101E780000AF78604FF4C06000F044F843233B7330
:101E880001237B730323BB730123FB7307F10C034B
:101E9800184600F049F81037BD4680BD80B485B0BB
:101EA80000AF78600023FB607A6813461B019B1A19
:101EB800DB001A460A4BA3FB0213D21A520813443A
:101EC8009B08BB60FB680133FB60FA68BB689A42F9
:101ED80000D900E0F6E71437BD465DF8047B70478B
:101EE8002549922480B582B000AF78607B684FF4B2
:101EF8007A7202FB03F31846FFF7D0FF0837BD4696
:101F080080BD00BF80B483B000AF7860054A7B68AD
:101F180043F0BF6343F40033D3600C37BD465DF82C
:101F2800047B704700ED00E080B485B000AF7860B6
:101F38000023FB730023BB730F237B737B68DB7861
:101F4800002B38D0264BDB68DB4303F4E0631B0A25
:101F5800FB73FB7BC3F10403BB737A7BFB7B42FA05
:101F680003F37B737B685B781A46BB7B02FA03F347
:101F7800FB737B689A787B7B1340DAB2FB7B134355
:101F8800FB73FB7B1B01FB73164A7B681B781344AE
:101F9800FA7B83F80023134A7B681B785B09DBB262
:101FA80018467B681B7803F01F03012101FA03F32D
:101FB80042F820300FE00B497B681B785B09DBB2E5
:101FC80018467B681B7803F01F0301229A4000F132
:101FD800200341F823201437BD465DF8047B704781
:101FE80000ED00E000E100E080B483B000AF78606D
:101FF800396007493B6823F0604323F07F037A6820
:1020080013438B600C37BD465DF8047B704700BFF7
:1020180000ED00E080B483B000AF03460A46FB71D0
:102028001346BB71BB79002B06D00949084B1A69C6
:10203800FB7913430B6106E00549054B1A69FB79E7
:10204800DB4313400B610C37BD465DF8047B7047DA
:1020580000ED00E080B483B000AF78607B68042BAB
:1020680006D1094A084B1B6843F00403136005E0D6
:10207800054A054B1B6823F0040313600C37BD4663
:102088005DF8047B704700BF10E000E080B400AF4B
:10209800BD465DF8047B704780B483B000AF03464B
:1020A800FB71FB79002B02D0012B02D002E000BFAC
:1020B80000E000BF0C37BD465DF8047B704700BFE9
:1020C80080B400AFBD465DF8047B704780B400AFB4
:1020D800BD465DF8047B704780B400AFBD465DF82F
:1020E800047B704780B400AFBD465DF8047B704741
:1020F80080B400AFBD465DF8047B704780B483B000
:1021080000AF03463960FB7197F90730002B0BDAF3
:102118000D49FB7903F00F03043B3A68D2B2120170
:10212800D2B20B441A7609E0084997F907303A68A1
:10213800D2B21201D2B20B4483F800230C37BD4649
:102148005DF8047B704700BF00ED00E000E100E0AF
:1021580080B582B000AF78607B68B3F1807F01D32F
:10216800012311E00A4A7B6823F07F43013B536057
:102178004FF0FF300F21FFF7C1FF054B00229A6097
:10218800034B07221A60002318460837BD4680BD56
:1021980010E000E080B584B002AF02F095FF00F0D7
:1021A80047F81C4B00931C4800211C4A1C4B00F0AC
:1021B800FFF81C4B1B68B3F5FA7F04D11A4B4FF498
:1021C80080425A830BE0174B1B68B3F57A7F06D120
:1021D800144B00221A60144B4FF480421A83FB1DE3
:1021E8001846FEF7E3FF0346002B0AD0FB79184692
:1021F800FEF740FF0C4B4FF400521A830B4B0A2298
:102208001A600A4B1B68002B03D1074B4FF400528E
:102218005A83CEE71C000020401200200001002055
:10222800C000002038120020001802403C12002094
:1022380080B582B000AF4020012100F0C9FD4FF405
:1022480070433B6001233B710023BB7101237B7109
:102258000023FB713B460B481946FEF721F80A4B51
:102268001B680A4AA2FB03239B091846FFF770FF65
:102278000346002B01D000F00BF800BF0837BD461D
:1022880080BD00BF00180240EC000020D34D621052
:1022980080B483B000AF0123FB8000233B6000BF04
:1022A8003B685A1C3A600B4A9342F9D90A4AFB88A0
:1022B8001B039BB25383FB885B00FB80FB880F2BBF
:1022C80001D90123FB80044AFB881B039BB21383BB
:1022D800E3E700BF1FA107000018024080B400AF69
:1022E800084B1B680133074A1360074B1B68002B18
:1022F80004D0054B1B68013B034A1360BD465DF8DB
:10230800047B7047381200203C12002080B400AFD4
:10231800BD465DF8047B704780B500AFFFF7B8FF96
:1023280080BD00BF80B500AFFFF7B2FF80BD00BF22
:1023380080B500AFFFF7ACFF80BD00BF80B500AF30
:10234800FFF7A6FF80BD00BF80B400AFBD465DF8B3
:10235800047B704780B400AFBD465DF8047B7047CE
:1023680080B400AFBD465DF8047B704780B500AF10
:102378000148FEF7DDFF80BD4012002080B500AFA8
:10238800094B9B7A002B0AD0084A084B1B6823F09C
:102398000603136002F098FE034802F03BF94FF47D
:1023A800802002F083FE80BD4012002010ED00E086
:1023B80080B584B000AFF8607A603B600B46FB7272
:1023C800F868FFF7FBFCF86800F01CF8FB683A684F
:1023D800C3F8E025FB68BA69C3F8E425FB687A68A6
:1023E800C3F8E825FB7AF868194602F08FFFFB6806
:1023F800D3F8E4351B689847F868FFF737FD1037BE
:10240800BD4680BD80B483B000AF78600023184615
:102418000C37BD465DF8047B704700BF80B584B0BB
:1024280000AF786007F1080378681946FEF7C4FC26
:102438003B7A03F01F03012B0AD0022B0FD0002B8D
:1024480014D107F1080378681946FEF7DFF816E09B
:1024580007F1080378681946FEF728F90FE007F135
:10246800080378681946FEF755F908E03B7A23F027
:102478007F03DBB27868194603F0D2F800BF002367
:1024880018461037BD4680BD80B584B000AF78606F
:102498000B46FB70FB78002B44D17B6803F55C731B
:1024A800FB607B6893F81131032B4ED1FB68DA6926
:1024B800FB689B689A4220D9FB68DA69FB689B68CD
:1024C800D21AFB68DA617B68DB78012B06D1FB68DE
:1024D800DA68FB689B681A44FB68DA60FB68D968AD
:1024E800FB689A68FB68DB69934228BF13469BB276
:1024F80078681A4602F038FA27E07B68D3F8E035A6
:102508001B69002B0AD07B6893F81231032B05D185
:102518007B68D3F8E0351B6978689847786802F0DB
:1025280037FA12E07B68D3F8E0359B69002B0CD0B2
:102538007B6893F81231032B07D17B68D3F8E03519
:102548009B69FA787868114698470023184610372F
:10255800BD4680BD80B584B000AF78600B46FB7087
:10256800FB78002B60D17B6803F58C73FB607B687C
:1025780093F81131022B6AD1FB68DA69FB689B6812
:102588009A421CD9FB68DA69FB689B68D21AFB6817
:10259800DA617B68DB78012B06D1FB68DA68FB68B7
:1025A8009B681A44FB68DA60FB68DA68FB68DB69D9
:1025B8009BB2786811461A4602F0A2F947E0FB6818
:1025C8001B6AFA689268B3FBF2F102FB01F29B1AEC
:1025D800002B14D1FB681A6AFB689B689A420ED3D9
:1025E800FB681A6AFB685B6A9A4208D2786800211D
:1025F800002202F085F9FB6800225A6227E07B6816
:10260800D3F8E035DB68002B0AD07B6893F81231E9
:10261800032B05D17B68D3F8E035DB6878689847E9
:10262800786802F0CDF912E07B68D3F8E0355B6991
:10263800002B0CD07B6893F81231032B07D17B68F1
:10264800D3F8E0355B69FA78786811469847002333
:1026580018461037BD4680BD80B582B000AF78609F
:10266800786800214022002302F0D0FE786880219B
:102678004022002302F0CAFE7B68012283F812215F
:102688007B68D3F8E4355B687A6892781046984797
:10269800002318460837BD4680BD00BF80B582B00C
:1026A80000AF78607B68D3F8E4351B6998477B688E
:1026B800032283F81221002318460837BD4680BD3F
:1026C80080B582B000AF78607B68042283F812215D
:1026D8007B68D3F8E435DB68984700231846083749
:1026E800BD4680BD80B582B000AF78607B68D3F806
:1026F800E035DB69002B05D07B68D3F8E035DB6972
:1027080078689847002318460837BD4680BD00BF43
:1027180080B582B000AF78600B46FB707B68D3F859
:10272800E0351B68FA787868114698477B68D3F8D3
:10273800E4359B689847002318460837BD4680BD96
:1027480080B582B000AF78600B46FB707B68D3F829
:10275800E0355B68FA787868114698470023184690
:102768000837BD4680BD00BF80B582B000AF786035
:102778007B68D3F8E0351B6A7868984700231846C9
:102788000837BD4680BD00BF80B582B000AF786015
:102798007B68D3F8E0355B6A786898470023184669
:1027A8000837BD4680BD00BF80B582B000AF0F4B73
:1027B8007B600F4B3B6007E03B681A1D3A607A6804
:1027C800111D796012681A603B680A4A9342F3D374
:1027D8000B480C494FF000028842B8BF40F8042B60
:1027E800FADBFFF7D7FC0837BD4680BD885A0008DA
:1027F800000000204001002080B400AFFEE7000088
:1028080040110020BC20002080B400AF104A104BBB
:102818001B6843F0010313600D4B00229A600C4AB9
:102828000B4B1B6823F0847323F480331360084B2D
:10283800084A5A60064A064B1B6823F48023136033
:10284800034B0022DA60BD465DF8047B704700BF89
:10285800003802401030002480B483B000AF034633
:10286800FB71054B00221A70034AFB7913700C3771
:10287800BD465DF8047B70470238024080B582B0DF
:1028880000AF00233B600023FB710023BB713120A4
:1028980000F086FC0346BB713B6801333B603B6834
:1028A800B3F5A06F02D0BB79002BF0D0312000F037
:1028B80077FC0346002B02D00123FB7101E00023C3
:1028C800FB71FB7918460837BD4680BD80B485B0DA
:1028D80000AF0346FB710023FB600A4B1B68FB60DB
:1028E800FB6823F0F803FB60FB79DB00FA6813430D
:1028F800FB60044AFB6813601437BD465DF8047B2F
:10290800704700BF0038024080B483B000AF034670
:10291800FB71044AFB7913600C37BD465DF8047BF4
:10292800704700BF0000474280B483B000AF034641
:10293800FB710C4B00221A700A4B00221A70FB79AB
:10294800012B02D0042B04D007E0064B01221A7099
:1029580003E0044B05221A7000BF0C37BD465DF832
:10296800047B70477038024080B483B000AF0346E0
:10297800FB71044AFB7913600C37BD465DF8047B94
:10298800704700BF800E474280B485B000AFF86042
:10299800B9607A603B600A497B689A01BB681A4350
:1029A8003B685B08013B1B041A43FB681A43BB697D
:1029B8001B0613434B601437BD465DF8047B704714
:1029C8000038024080B483B000AF0346FB71044A6C
:1029D800FB7913600C37BD465DF8047B704700BF78
:1029E8006000474280B483B000AF78603960064920
:1029F8007B689A013B681B071343C1F884300C3786
:102A0800BD465DF8047B70470038024080B483B04F
:102A180000AF0346FB71044AFB7913600C37BD46CF
:102A28005DF8047B704700BF6800474280B483B0FC
:102A380000AF0346FB71044AFB7913600C37BD46AF
:102A48005DF8047B704700BF4C00474280B485B0F6
:102A580000AF786039600023FB600A4B9B68FB601D
:102A6800FB6823F0EC63FB607A683B681343FA6801
:102A78001343FB60034AFB6893601437BD465DF857
:102A8800047B70470038024080B485B000AF78609E
:102A980039600023FB600A4B9B68FB60FB6823F0EE
:102AA8007843FB607A683B681343FA681343FB601A
:102AB800034AFB6893601437BD465DF8047B704792
:102AC8000038024080B485B000AF78600023FB6016
:102AD800094B9B68FB60FB6823F00303FB60FA6803
:102AE8007B681343FB60044AFB6893601437BD4658
:102AF8005DF8047B704700BF0038024080B400AF27
:102B0800054B9B68DBB203F00C03DBB21846BD46ED
:102B18005DF8047B704700BF0038024080B485B080
:102B280000AF78600023FB60094B9B68FB60FB6883
:102B380023F0F003FB60FA687B681343FB60044AE8
:102B4800FB6893601437BD465DF8047B704700BF8F
:102B58000038024080B485B000AF78600023FB6085
:102B6800094B9B68FB60FB6823F4E053FB60FA6841
:102B78007B681343FB60044AFB6893601437BD46C7
:102B88005DF8047B704700BF0038024080B485B010
:102B980000AF78600023FB60094B9B68FB60FB6813
:102BA80023F46043FB607B68DB00FA681343FB6037
:102BB800034AFB6893601437BD465DF8047B704791
:102BC8000038024080B489B000AF78600023BB6150
:102BD80000237B610023FB6102233B610023FB6030
:102BE8000223BB60484B9B6803F00C03BB61BB69C5
:102BF800042B07D0082B09D0002B3FD17B68434A10
:102C08001A603FE07B68424A1A603BE03E4B5B68D3
:102C180003F480039B0DFB603B4B5B6803F03F03B1
:102C2800BB60FB68002B0DD0394ABB68B2FBF3F2DE
:102C3800354B596847F6C0730B409B0903FB02F3F9
:102C4800FB610CE0314ABB68B2FBF3F22E4B5968CA
:102C580047F6C0730B409B0903FB02F3FB612A4B49
:102C68005B6803F440331B0C01335B003B61FA697A
:102C78003B69B2FBF3F27B681A6003E07B68234A86
:102C88001A6000BF204B9B6803F0F003BB61BB696F
:102C98001B09BB611F4ABB6913441B78DBB27B610C
:102CA8007B681A687B69DA407B685A60164B9B68B8
:102CB80003F4E053BB61BB699B0ABB61154ABB695E
:102CC80013441B78DBB27B617B685A687B69DA4006
:102CD8007B689A600C4B9B6803F46043BB61BB69DB
:102CE8005B0BBB610B4ABB6913441B78DBB27B618E
:102CF8007B685A687B69DA407B68DA602437BD46AE
:102D08005DF8047B704700BF003802400024F400DF
:102D180040787D016800002080B485B000AF7860FD
:102D28000023FB607B6803F44073B3F5407F11D147
:102D38000F4B9B68FB60FB6823F4F813FB607B6810
:102D480023F0704323F44073FA681343FB60084A86
:102D5800FB6893600649064B1A6F7B68C3F30B0345
:102D680013430B671437BD465DF8047B704700BFFB
:102D78000038024080B483B000AF0346FB71044AB8
:102D8800FB7913600C37BD465DF8047B704700BFC4
:102D98003C0E474280B483B000AF0346FB71044A3F
:102DA800FB7913600C37BD465DF8047B704700BFA4
:102DB800400E474280B483B000AF7860034A7B6816
:102DC80013600C37BD465DF8047B70475C014742D1
:102DD80080B483B000AF78600B46FB70FB78002BA3
:102DE80006D00949084B1A6B7B6813430B6306E04E
:102DF8000549054B1A6B7B68DB4313400B630C37A3
:102E0800BD465DF8047B70470038024080B483B04B
:102E180000AF78600B46FB70FB78002B06D00949A1
:102E2800084B5A6B7B6813434B6306E00549054B17
:102E38005A6B7B68DB4313404B630C37BD465DF828
:102E4800047B70470038024080B483B000AF7860DC
:102E58000B46FB70FB78002B06D00949084B9A6B90
:102E68007B6813438B6306E00549054B9A6B7B68C7
:102E7800DB4313408B630C37BD465DF8047B70471A
:102E88000038024080B483B000AF78600B46FB7016
:102E9800FB78002B06D00949084B1A6C7B68134352
:102EA8000B6406E00549054B1A6C7B68DB4313404D
:102EB8000B640C37BD465DF8047B70470038024050
:102EC80080B483B000AF78600B46FB70FB78002BB2
:102ED80006D00949084B5A6C7B6813434B6406E0DB
:102EE8000549054B5A6C7B68DB4313404B640C3730
:102EF800BD465DF8047B70470038024080B483B05B
:102F080000AF78600B46FB70FB78002B06D00949B0
:102F1800084B1A697B6813430B6106E00549054BAA
:102F28001A697B68DB4313400B610C37BD465DF8BB
:102F3800047B70470038024080B483B000AF7860EB
:102F48000B46FB70FB78002B06D00949084B5A69E1
:102F58007B6813434B6106E00549054B5A697B685A
:102F6800DB4313404B610C37BD465DF8047B70476B
:102F78000038024080B483B000AF78600B46FB7025
:102F8800FB78002B06D00949084B9A697B681343E4
:102F98008B6106E00549054B9A697B68DB43134062
:102FA8008B610C37BD465DF8047B704700380240E2
:102FB80080B483B000AF78600B46FB70FB78002BC1
:102FC80006D00949084B1A6A7B6813430B6206E06E
:102FD8000549054B1A6A7B68DB4313400B620C37C3
:102FE800BD465DF8047B70470038024080B483B06A
:102FF80000AF78600B46FB70FB78002B06D00949C0
:10300800084B5A6A7B6813434B6206E00549054B37
:103018005A6A7B68DB4313404B620C37BD465DF848
:10302800047B70470038024080B483B000AF7860FA
:103038000B46FB70FB78002B06D00949084B1A6D2C
:103048007B6813430B6506E00549054B1A6D7B68E1
:10305800DB4313400B650C37BD465DF8047B7047B6
:103068000038024080B483B000AF78600B46FB7034
:10307800FB78002B06D00949084B5A6D7B6813432F
:103088004B6506E00549054B5A6D7B68DB431340E9
:103098004B650C37BD465DF8047B7047003802402D
:1030A80080B483B000AF78600B46FB70FB78002BD0
:1030B80006D00949084B9A6D7B6813438B6506E077
:1030C8000549054B9A6D7B68DB4313408B650C37CC
:1030D800BD465DF8047B70470038024080B483B079
:1030E80000AF78600B46FB70FB78002B06D00949CF
:1030F800084B1A6E7B6813430B6606E00549054BBF
:103108001A6E7B68DB4313400B660C37BD465DF8CF
:10311800047B70470038024080B483B000AF786009
:103128000B46FB70FB78002B06D00949084B5A6EFA
:103138007B6813434B6606E00549054B5A6E7B686E
:10314800DB4313404B660C37BD465DF8047B704784
:103158000038024080B483B000AF03460A46FB71D2
:103168001346BB71BB79002B08D00C490B4B1B785D
:10317800DAB2FB791343DBB20B7009E00749074B5E
:103188001B78DAB2FB79DB43DBB21340DBB20B709E
:103198000C37BD465DF8047B704700BF0D38024010
:1031A80080B487B000AF0346FB710023FB600023A7
:1031B8007B610023FB74FB795B09DBB2FB60FB6876
:1031C800012B03D1124B1B687B6109E0FB68022BC2
:1031D80003D10F4B1B6F7B6102E00D4B5B6F7B6173
:1031E800FB7903F01F03FB60FB687A6922FA03F39B
:1031F80003F00103002B02D00123FB7401E000233C
:10320800FB74FB7C18461C37BD465DF8047B704791
:103218000038024080B400AF044A044B5B6F43F0AF
:1032280080735367BD465DF8047B704700380240E1
:1032380080B485B000AF0346FB710023FB73094BD4
:10324800DA68FB791340002B02D00123FB7301E0FD
:103258000023FB73FB7B18461437BD465DF8047BDF
:10326800704700BF0038024080B483B000AF034607
:10327800FB71044AFB7913700C37BD465DF8047B7B
:10328800704700BF0E38024080B485B000AF786048
:103298000023FB607B68DB684FF0FF325A607B6875
:1032A800DB684FF0FF325A61FB7B43F08003FB730E
:1032B8007B7B43F008037B737B68DB68FA689A6161
:1032C8001437BD465DF8047B704700BF80B586B0F3
:1032D80000AF78600023FB7400237B610023FB6050
:1032E8000320FEF7DBFD7B68DB681B69FB607B69FD
:1032F80001337B617B69174A934201D9002324E09B
:10330800FB68DB0FDBB2002BEAD000237B61FB6894
:1033180043F00103FB607B68DB68FA681A617B682D
:10332800DB681B69FB607B6901337B617B69094A48
:10333800934200D905E0FB6803F00103DBB2012BDF
:10334800EDD00320FEF7AAFDFB7C18461837BD46D2
:1033580080BD00BF400D030080B489B000AFF860A5
:10336800B96011461A460B46FB711346BB80002311
:10337800FB76FB68DB78002B22D100237B610023DE
:10338800FB61BB880333002B00DA03339B107B619E
:10339800FB79FA6832339B0013449B683B61002336
:1033A800FB6109E0BB681A683B691A60FB69013375
:1033B800FB61BB680433BB60FA697B699A42F1D34D
:1033C800FB7E18462437BD465DF8047B704700BF76
:1033D80080B489B000AFF860B9601346FB80002361
:1033E800FB61FB880333002B00DA03339B10BB61BE
:1033F800FB68D3F8D0307B610023FB6109E07B696F
:103408001A68BB681A60FB690133FB61BB68043347
:10341800BB60FA69BB699A42F1D3BB681846243786
:10342800BD465DF8047B704780B487B000AF786014
:103438000B46FB7000233B610023FB737B68002273
:10344800DA707B6801229A707B6840229A80FB7848
:10345800012B13D14FF0A0433B617B680122DA7244
:103468007B6808221A707B6804225A707B684FF4C4
:10347800A072DA807B6802221A7211E0FB78002BB6
:103488000ED1454B3B617B680022DA727B680C22C7
:103498001A707B6806225A707B684FF4A062DA8043
:1034A8003A697B68DA603B6903F500631A467B6812
:1034B8001A6100237B611CE07B695A013B69134454
:1034C80003F5106319467A687B6904339B0013443B
:1034D80099607B695A013B69134403F530631946C7
:1034E8007A687B6914339B00134459607B69013304
:1034F8007B617B685B781A467B699A42DCD83B69BA
:1035080003F580631A467B685A613B6903F5886353
:103518001A467B68C3F8CC2000237B610FE07B69E7
:103528005A013B69134403F5A06319467A687B691D
:1035380022339B00134499607B6901337B617B686C
:103548001B781A467B699A42E9D800237B610FE011
:103558007B691A033B69134403F5805319467A685B
:103568007B6932339B00134499607B6901337B612B
:103578007B681B781A467B699A42E9D83B6903F550
:1035880060631A467B68C3F80C21FB7B18461C371E
:10359800BD465DF8047B70470000044080B588B0E4
:1035A80000AF78600023FB770023BB6100237B61B9
:1035B8000023FB607B681B7A012B4FD17B68DB689B
:1035C8009B6B7B61BB7D6FF30003BB757B685B7A8C
:1035D800002B03D0BB7D43F01003BB757B68DB6811
:1035E8007A699A630023BB617B68DB68DB68BB612F
:1035F8003B7E6FF386133B76BB7E6FF38613BB76F9
:103608003B7E43F010033B763B7E6FF3C3033B7670
:103618003B7E6FF3C7133B76BB7E6FF34103BB76EC
:10362800BB7E6FF3C303BB767B68DB68BA69DA607D
:103638007868FFF74BFE7B68DB78012B40F08280CF
:103648003B7B052262F344033B733B7B43F020033F
:103658003B737B68DB68FA689A6073E07B68DB68B9
:10366800DB68BB613B7E43F040033B767B68DB68ED
:10367800BA69DA607868FFF729FE00237B61BB7DB1
:1036880043F00103BB757B681B7A032B03D1BB7D19
:1036980043F00203BB75BB7D43F00403BB75BB7DE0
:1036A80043F00803BB75BB7D43F02003BB757B6803
:1036B8005B7A002B03D0BB7D43F01003BB757B689E
:1036C800DB687A699A631420FEF70CFC7B68DB6878
:1036D800DB68BB617B681B7A032B03D1BB7E43F09D
:1036E8000103BB767B68DB68BA69DA607B681B7AA2
:1036F800032B27D17B68DB681B6B3B61FB7C0122BA
:1037080062F38303FB74BB7C6FF3C713BB74FB7C4E
:1037180043F01003FB74BB7C2D2262F30603BB74D9
:103728007B68DB683A691A63C820FEF7DBFBBB7C61
:1037380043F08003BB747B68DB683A691A63C8206E
:10374800FEF7D0FB7B68DB78012B10D17B68DB6848
:103758009B68FB603B7B052262F344033B733B7B26
:1037680043F020033B737B68DB68FA689A60FB7F51
:1037780018462037BD4680BD80B485B000AF78605C
:103788000023FB730023BB603B7A43F001033B72C9
:103798007B68DB687A68D2689168BA680A439A607D
:1037A800FB7B18461437BD465DF8047B704700BFA5
:1037B80080B485B000AF78600023FB730023BB6042
:1037C8003B7A43F001033B727B68DB687A68D26816
:1037D8009168BA68D2430A409A60FB7B184614374E
:1037E800BD465DF8047B704780B586B000AF786051
:1037F80039600023FB7400237B610023FB60FB68B6
:1038080043F02003FB603B68DBB203F01F03DBB22D
:1038180003F01F039B01FA6822F4F8621343FB606C
:103828007B68DB68FA681A617B68DB681B69FB6088
:103838007B6901337B617B69094A934200D906E0C1
:10384800FB685B0903F00103DBB2012BECD003201A
:10385800FEF724FBFB7C18461837BD4680BD00BF29
:10386800400D030080B586B000AF78600023FB747C
:1038780000237B610023FB60FB6843F01003FB60BF
:103888007B68DB68FA681A617B68DB681B69FB6028
:103898007B6901337B617B69094A934200D906E061
:1038A800FB681B0903F00103DBB2012BECD00320FA
:1038B800FEF7F4FAFB7C18461837BD4680BD00BFFA
:1038C800400D030080B584B000AF78600B46FB70F4
:1038D8000023FB737B68DB68DB68BB60FB7A6FF3F4
:1038E8004513FB72FB7A6FF38613FB72FB78012B8F
:1038F80004D1FB7A43F02003FB7206E0FB78002B2F
:1039080003D1FB7A43F04003FB727B68DB68BA683B
:10391800DA603220FEF7E6FAFB7B18461037BD4620
:1039280080BD00BF80B483B000AF78607B68DB687F
:103938005B6903F0010318460C37BD465DF8047B4C
:10394800704700BF80B582B000AF78607868FFF735
:10395800E9FF0346012B14BF01230023DBB21846FD
:103968000837BD4680BD00BF80B582B000AF786023
:103978007868FFF7D7FF0346012B0CBF012300230C
:10398800DBB218460837BD4680BD00BF80B485B09D
:1039980000AF78600023FB607B68DB685B69FB60D5
:1039A8007B68DB689B69FA681340FB60FB68184614
:1039B8001437BD465DF8047B704700BF80B483B000
:1039C80000AF78607B68DB685B6818460C37BD46DB
:1039D8005DF8047B704700BF80B485B000AF7860A5
:1039E8000B46FB707B681B691B68FB60FB7803F068
:1039F8000303DAB23B7B62F301033B737B681B6909
:103A0800FA681A601437BD465DF8047B704700BF3A
:103A180080B58CB000AF7860002387F82B30002386
:103A28007B6200233B620023FB610023BB61002310
:103A38007B617B68D3F80C3100221A607B681B69B4
:103A48001B683B6297F821306FF3C40387F8213075
:103A58007B681B693A6A1A607B68DB7A012B33D171
:103A680078680321FFF7B8FF7B68DB6880225A6219
:103A78004023FB838023BB837B68DB68FA699A62F7
:103A8800BA8BFB8B13449BB23B8380237B837B687D
:103A9800DB68BA69C3F804213A8B7B8B13449BB269
:103AA8003B8300237B837B68DB68BA69C3F8082102
:103AB8003A8B7B8B13449BB23B8300237B837B68CD
:103AC800DB68BA69C3F80C2178681021FFF78CFE0F
:103AD8007868FFF7C7FE7B681B6900221A617B685C
:103AE8001B6900225A617B681B694FF0FF329A619B
:103AF8007B681B690022DA610023FB623AE07A687E
:103B0800FB6A04339B0013449B681B687B6297F82D
:103B1800273023F07F03DBB2002B0ED000237B621B
:103B280097F8273043F0400387F8273097F8273075
:103B380043F0080387F8273001E000237B627A68A6
:103B4800FB6A04339B0013449B687A6A1A607A689C
:103B5800FB6A04339B0013449B6800221A617A684D
:103B6800FB6A04339B0013449B68FF229A60FB6A3C
:103B78000133FB627B685B781A46FB6A9A42BED8BF
:103B88000023FB6235E07A68FB6A14339B00134418
:103B98005B681B68FB60FB7B23F07F03DBB2002BB9
:103BA8000AD00023FB60FB7B43F04003FB73FB7BE5
:103BB80043F00803FB7301E00023FB607A68FB6AAB
:103BC80014339B0013445B68FA681A607A68FB6ACE
:103BD80014339B0013445B6800221A617A68FB6AFD
:103BE80014339B0013445B68FF229A60FB6A01331D
:103BF800FB627B685B781A46FB6A9A42C3D800234B
:103C08007B617B7D43F001037B757B681B697A6868
:103C1800126911697A69D24311407A690A431A61B3
:103C28007B68DB78012B1BD100233B613B7C43F095
:103C380001033B743B7C43F002033B743B8A402204
:103C480062F38A033B82BB7C43F00103BB747B8A2B
:103C5800402262F349037B827B681B693A691A63D5
:103C6800786800F007F897F82B3018463037BD46CB
:103C780080BD00BF80B584B000AF78600023FB73BF
:103C88000023BB607B68DB6800229A617B68DB6885
:103C98004FF0FF325A617868FFF7F6FA7B68DB78F5
:103CA800002B03D13B7A43F010033B727B7A43F03D
:103CB80008037B727B7A43F010037B727B7A43F0B4
:103CC80020037B72BB7A43F00403BB72BB7A43F0D8
:103CD8000803BB723B7A43F008033B72BB7A43F09C
:103CE8001003BB72BB7A43F02003BB727B68DB68AE
:103CF8007A68D2689169BA68D2431140BA680A43AF
:103D08009A61FB7B18461037BD4680BD80B485B0EC
:103D180000AF78600023FB737B681B699B68BB60FE
:103D28003B7AC3F34103DBB2022B09D0032B04D047
:103D3800012B02D00323FB7305E00223FB7302E08F
:103D48000123FB7300BFFB7B18461437BD465DF8A3
:103D5800047B704780B487B000AF78600023FB75A0
:103D68000023BB607B681B699B683B617B689B6920
:103D78001B68FB603B7CC3F34103DBB2022B04D01E
:103D8800BB896FF30A03BB8105E0BB89032262F399
:103D98000A03BB8100BF7B689B69FA681A607B7A5B
:103DA80043F001037B727B681B697A68126951686A
:103DB800BA68D2431140BA680A435A60FB7D184674
:103DC8001C37BD465DF8047B704700BF80B487B0E0
:103DD80000AF786039600023FB740023FB60002388
:103DE800BB603B685B78012B0FD13B681B787A6816
:103DF80004339B0013449B687B613B681B781A461D
:103E0800012393409BB23B810EE03B681B787A68A4
:103E180014339B0013445B687B613B681B781A462C
:103E2800012393409BB27B817B691B68FB607B7B92
:103E380023F07F03DBB2002B27D13B689B689BB242
:103E4800C3F30A039AB2BB8962F30A03BB813B68D6
:103E5800DB7803F00303DAB2BB7B62F38303BB7343
:103E68003B68DB88DBB203F00F03DAB2FB8962F34D
:103E78008913FB81FB7B43F01003FB737B7B43F0CF
:103E880080037B73FA687B691A607B681B697A68B0
:103E98001269D169BA680A43DA61FB7C18461C3793
:103EA800BD465DF8047B704780B487B000AF78608A
:103EB80039600023FB740023FB600023BB603B6870
:103EC8005B78012B0FD13B681B787A6804339B0021
:103ED80013449B687B613B681B781A460123934017
:103EE8009BB23B810EE03B681B787A6814339B00D9
:103EF80013445B687B613B681B781A460123934037
:103F08009BB27B817B7B6FF3C7137B73FA687B69FA
:103F18001A607B681B697A681269D169BA68D243EA
:103F28000A40DA61FB7C18461C37BD465DF8047B05
:103F3800704700BF80B588B000AF78603960002353
:103F4800FB770023BB6100237B6100233B613B6857
:103F58005B78012B40F0AB803B681B787A680433B0
:103F68009B0013449B681B687B613B681B787A68DD
:103F780004339B0013449B681B693B613B685B6986
:103F8800002B09D13B696FF312033B617B8A012245
:103F980062F3CC037B8222E03B685B69C3F31202C5
:103FA8003B6962F312033B613B685A693B689B6853
:103FB80013445A1E3B689B68B2FBF3F39BB2C3F3EE
:103FC80009039AB27B8A62F3CC037B823B68DB7875
:103FD800012B04D1FB7C012262F34613FB743B687E
:103FE8001B787A6804339B0013449B683A691A610A
:103FF8007B68DB78012B0AD13B681B787A6804332D
:104008009B0013449B683A6812695A6115E03B6843
:10401800DB78012B11D03B685B69002B0DD03B6826
:104028001B781A4601239340BB617B681B697A6839
:104038001269516BBA690A435A633B68DB78012BF2
:1040480014D17B681B699B68FB60FB68C3F30D2375
:104058009BB203F00103002B04D1FB7D43F0200346
:10406800FB7503E0FB7D43F01003FB75FB7D43F01C
:104078000403FB75FB7D43F08003FB753B681B78ED
:104088007A6804339B0013449B687A691A603B681A
:10409800DB78012B40F089803B68D9683B681A7847
:1040A8003B685B699BB27868FFF756F97DE03B682F
:1040B8001B787A6814339B0013445B681B687B6128
:1040C8003B681B787A6814339B0013445B681B6950
:1040D8003B613B685B69002B0DD13B689B68C3F370
:1040E80012023B6962F312033B617B8A012262F38D
:1040F800CC037B8220E03B685A693B689B68134489
:104108005A1E3B689B68B2FBF3F39BB2C3F30903E7
:104118009AB27B8A62F3CC037B827B8AC3F3C9039E
:104128009BB21A463B689B6803FB02F3C3F3120277
:104138003B6962F312033B613B681B787A6814336E
:104148009B0013445B683A691A617B68DB78012B32
:1041580009D13B681B787A6814339B0013445B6869
:104168003A6812695A613B68DB78012B0CD13B68CD
:104178005B79002B04D0FB7D43F02003FB7503E043
:10418800FB7D43F01003FB75FB7D43F00403FB75D7
:10419800FB7D43F08003FB753B681B787A6814331A
:1041A8009B0013445B687A691A60FB7F18462037C6
:1041B800BD4680BD80B489B000AF78603960002307
:1041C800FB770023BB6100233B610023BB603B6896
:1041D8005B78012B70D17B689B697B617B691B686D
:1041E8003B617B691B69BB603B685B69002B09D13C
:1041F8003B7A6FF306033B72BB7A012262F3C40376
:10420800BB7223E03B685A693B689B689A420ED9A7
:104218003B689A683B685A613B689B68DBB203F06D
:104228007F03DAB23B7A62F306033B7209E03B682C
:104238005B69DBB203F07F03DAB23B7A62F3060311
:104248003B72BB7A012262F3C403BB72BA687B6912
:104258001A617B68DB78012B09D13B681B787A6887
:1042680004339B0013449B683A6812695A61FB7CCB
:1042780043F00403FB74FB7C43F08003FB743A694E
:104288007B691A607B68DB78002B76D13B685B69B9
:10429800002B72D03B681B781A46012393401A46BC
:1042A800BB691343BB617B681B697A681269516BF0
:1042B800BA690A435A6360E03B681B787A6814332A
:1042C8009B0013445B681B683B613B681B787A68FA
:1042D80014339B0013445B681B69BB603B685B69D4
:1042E800002B0FD13B689B68DBB203F07F03DAB287
:1042F8003B7A62F306033B72BB7A012262F3C40382
:10430800BB7212E03B689A683B685A613B689B68DD
:10431800DBB203F07F03DAB23B7A62F306033B7247
:10432800BB7A012262F3C403BB723B681B787A68CC
:1043380014339B0013445B68BA681A617B68DB78A6
:10434800012B09D13B681B787A6814339B0013440E
:104358005B683A6812695A61FB7C43F00403FB749A
:10436800FB7C43F08003FB743B681B787A6814334A
:104378009B0013445B683A691A60FB7F1846243730
:10438800BD465DF8047B704780B487B000AF7860A5
:1043980039600023FB750023FB603B685B78012BC9
:1043A8001CD13B681B787A6804339B0013449B68D4
:1043B8003B613B691B68FB60FB7B23F07F03DBB23F
:1043C800002B03D0FB7B43F04003FB73BB7B43F024
:1043D8002003BB73FA683B691A6011E03B681B78DD
:1043E8007A6814339B0013445B683B613B691B6824
:1043F800FB60BB7B43F02003BB73FA683B691A6020
:10440800FB7D18461C37BD465DF8047B704700BF2E
:1044180080B487B000AF786039600023FB74002354
:10442800FB603B685B78012B08D13B681B787A6896
:1044380004339B0013449B687B6107E03B681B784F
:104448007A6814339B0013445B687B617B691B6843
:10445800FB60BB7B6FF34513BB733B68DB78032BB7
:1044680003D03B68DB78022B03D1FB7B43F01003BE
:10447800FB73FA687B691A60FB7C18461C37BD46DB
:104488005DF8047B704700BF80B485B000AF7860EA
:104498007B681B699B69FB607B681B69DB69FA6841
:1044A8001340FB60FB681B0C18461437BD465DF8CB
:1044B800047B704780B485B000AF78600B46FB7012
:1044C800FB787A6814339B0013445B689B68FB6035
:1044D8007B681B695B69FA681340FB60FB681846D8
:1044E8001437BD465DF8047B704700BF80B485B0C3
:1044F80000AF78607B681B699B69FB607B681B6900
:10450800DB69FA681340FB60FB689BB218461437F6
:10451800BD465DF8047B704780B487B000AF786013
:1045280000233B61FB7C43F0C003FB74BB7C01228E
:1045380062F3C403BB743B7C182262F306033B742A
:104548007B685B6D3A691A617B68DB78012B16D151
:104558000023FB607B685B6D7A6802F5B9625A617B
:104568007B685B6D1B68FB60FB7B43F08003FB7320
:104578004FF08023FB607B685B6DFA681A601C371C
:10458800BD465DF8047B704780B586B000AF7860A3
:104598007B68D3F81431002B39D07B681B699B6882
:1045A8003B613B7C03F00103DBB2002B2FD07B681F
:1045B8009B7A002B11D07B6803F586731B68FB6020
:1045C8003B7B6FF341033B733B7B6FF300033B7310
:1045D8007B68D3F80C31FA681A6000237B613B7D55
:1045E80043F001033B757B681B697A68126951685F
:1045F8007A690A435A600520FDF774FC7B681B69D9
:104608007A68126951687A69D2430A405A60183741
:10461800BD4680BD80B485B000AF78607B689B7A6A
:10462800002B1BD07B681B699B68FB603B7B03F0FE
:104638000103DBB2002B11D07B6803F586731B687E
:10464800BB603B7A6FF341033B723B7A6FF3000325
:104658003B727B68D3F80C31BA681A601437BD46D0
:104668005DF8047B704700BF80B584B000AF786008
:104678007B68012283F812210023FB6012E07A682C
:10468800FB6804339B0013449B68FF229A607A6896
:10469800FB6814339B0013445B68FF229A60FB6835
:1046A8000133FB607B685B781A46FB689A42E6D860
:1046B8007B681B6900221A617B681B6900225A61AA
:1046C8007B681B690022DA617B681B694FF0FF3247
:1046D8009A617868FFF7C6F878681021FFF784F8C0
:1046E8001037BD4680BD00BF80B487B000AF78608A
:1046F800396000237B610023FB603B685B78012BFA
:104708001FD13B681B787A6804339B0013449B686D
:104718003B613B691B68FB60BB7B03F02003DBB29A
:10472800002B02D010237B612DE0BB7B03F002033A
:10473800DBB2002B02D020237B6124E030237B6195
:1047480021E03B681B787A6814339B0013445B684C
:104758003B613B691B68FB60BB7B03F02003DBB25A
:10476800002B03D04FF480537B610CE0BB7B03F03C
:104778000203DBB2002B03D04FF400537B6102E04D
:104788004FF440537B617B6918461C37BD465DF882
:10479800047B704780B586B000AFF860B9607A6076
:1047A80000233B61BB685B78012B40D1BB681B7859
:1047B800FA6804339B0013449B687B617B691B6820
:1047C8003B617B68102B04D1F868B968FFF7DCFD02
:1047D80073E07B68202B04D1FB7C43F00803FB7457
:1047E80068E07B68302B1AD1BB7C03F02003DBB276
:1047F800002B07D0BB6800225A71F868B968FFF728
:1048080007FE5AE0FB7C43F00403FB747B7C43F017
:1048180080037B74FB7C43F08003FB744AE07B6875
:10482800002B47D17B7C6FF3C7137B7442E0BB68D6
:104838001B78FA6814339B0013445B687B617B69BF
:104848001B683B617B68B3F5805F04D1BB7C43F098
:104858002003BB742EE07B68B3F5005F04D1FB7CBA
:1048680043F00803FB7425E07B68B3F5405F1AD179
:10487800BB7C03F02003DBB2002B07D0BB6800220F
:104888005A71F868B968FFF7C3FD16E0FB7C43F07E
:104898000403FB747B7C43F080037B74FB7C43F054
:1048A8008003FB7406E07B68002B03D17B7C6FF3ED
:1048B800C7137B743A697B691A601837BD4680BD97
:1048C80080B586B000AFF860B9601346FB8000235E
:1048D800FB75FA88FB68C3F83821FA88FB68C3F8C7
:1048E8003421FB68022283F81121FB88F868002133
:1048F800BA6800F059FEFB7D18461837BD4680BDE2
:1049080080B586B000AFF860B9601346FB8000231D
:10491800FB75FB88F8680021BA6800F045FEFB7D4E
:1049280018461837BD4680BD80B586B000AFF86020
:10493800B9601346FB800023FB75FA88FB68C3F84F
:104948009023FA88FB68C3F88C23FB68032283F85A
:104958001121FB88F8680021BA6800F0E3FDFB7DAF
:1049680018461837BD4680BD80B586B000AFF860E0
:10497800B9601346FB800023FB75FB88F8680021AB
:10498800BA6800F0CFFDFB7D18461837BD4680BDDC
:1049980080B584B000AF78600023FB737B68042285
:1049A80083F81121786800210022002300F0FCFD23
:1049B8007868FFF7B1FDFB7B18461037BD4680BD10
:1049C80080B584B000AF78600023FB737B68052254
:1049D80083F81121786800210022002300F0A2FD4D
:1049E8007868FFF799FDFB7B18461037BD4680BDF8
:1049F80080B483B000AF78600B46FB70FA787968B2
:104A080013469B001344DB000B4403F562731B68D9
:104A18009BB218460C37BD465DF8047B704700BF53
:104A280080B584B000AF78600B46FB707B68D3F824
:104A3800EC3539331B88786881211A46022300F047
:104A4800E5FC7B68D3F8EC3540331B887868012196
:104A58001A46022300F0DAFC786882210822032330
:104A680000F0D4FC0D4BFB60FB68043302221A7083
:104A7800FB68053300221A70094B1B6898477B684E
:104A8800D3F8EC3540331B8878680121054A00F0DB
:104A980049FD002318461037BD4680BD1C01002083
:104AA800080000207418002080B582B000AF78603C
:104AB8000B46FB707868812100F0FCFC78680121C6
:104AC80000F0F8FC7868822100F0F4FC034B5B6886
:104AD8009847002318460837BD4680BD08000020C7
:104AE80080B584B000AF786039603B681B7803F00C
:104AF8006003002B3FD0202B37D13B68DB88002B8D
:104B080029D03B681B78DBB25BB2002B11DA364B3D
:104B18009B683A68527811463A68D2880846334901
:104B280098473B68DB88786830491A46FFF7C8FE23
:104B380019E03B685B781A462D4B1A603B68DB88A6
:104B48001A462C4B1A603B68DB88786827491A4656
:104B5800FFF7EAFE07E0244B9B683A685278104654
:104B680000210022984700233AE078683968FCF76A
:104B78006BF9022334E03B685B780A2B18D00B2BC7
:104B88001CD0062B2BD13B685B881B0A9BB2212BC0
:104B980007D1194BBB603B68DB883A2B28BF3A2307
:104BA800FB81FB897868B9681A46FFF789FE16E029
:104BB800786812490122FFF783FE10E03B685B88A2
:104BC800DBB2002B06D13B685B88DBB21A460B4B85
:104BD8001A6003E078683968FCF736F900BF0023EB
:104BE80018461037BD4680BD08000020B4180020C4
:104BF800BC000020641100208A0000205011002011
:104C080080B582B000AF78600A4B1B68FF2B0BD0D1
:104C1800094B9B68074A1168084A12680846084900
:104C28009847044BFF221A60002318460837BD46F0
:104C380080BD00BFBC0000200800002064110020D7
:104C4800B418002080B584B000AF78600B46FB70C4
:104C5800284B1B78012B48D1274B1B68002B03D10D
:104C6800244B00221A7040E07B68D3F8EC353933C6
:104C78001B881A46204B1B689A421ED21F4B1B6882
:104C8800FB817B68D3F8EC35B3F83930BB817B689E
:104C9800D3F8EC3539331B881A46184B1B68134474
:104CA800164A1360144B1B687A68D2F8EC2539321F
:104CB80012889B1A104A13600FE0104B1B68FB8187
:104CC8000D4B1B68BB810D4B1A680B4B1B681344BB
:104CD8000A4A1360084B00221A60FB89084A1A44E2
:104CE800BB897868812100F05FFC002318461037E3
:104CF800BD4680BD601100205C11002058110020C5
:104D0800BC18002080B584B000AF78600B46FB70FB
:104D1800FA78796813469B001344DB000B4403F5CB
:104D280062731B68FB810A4B1B69FA8909481146A3
:104D380098477B68D3F8EC3540331B8878680121A5
:104D4800044A00F0EFFB002318461037BD4680BD2B
:104D5800080000207418002080B582B000AF786089
:104D6800084B1B685A1C07490A60052B05D1054BDF
:104D780000221A60786800F007F800231846083700
:104D8800BD4680BD6811002080B584B000AF786052
:104D9800384B1B78012B69D0374B1B68B3F5006F74
:104DA80002D1354B00221A60334B1A68334B1B680B
:104DB8009A4203D12F4B00221A7057E02E4B1A68E3
:104DC8002E4B1B689A4206D92B4B1B68C3F5006310
:104DD8002B4A136006E0294B1A68274B1B68D31A25
:104DE800274A13607B68D3F8EC3539331B881A4699
:104DF800234B1B689A421ED21F4B1B68FB817B68A2
:104E0800D3F8EC35B3F83930BB817B68D3F8EC358F
:104E180039331B881A46184B1B681344164A13600B
:104E2800174B1B687A68D2F8EC25393212889B1A1E
:104E3800134A13600FE0104B1B68FB81104B1B6873
:104E4800BB810D4B1A680E4B1B6813440A4A13604A
:104E58000B4B00221A60074B01221A70FB89094A82
:104E68001A44BB897868812100F09EFB1037BD4643
:104E780080BD00BF6011002058110020541100208F
:104E88005C110020BC18002080B483B000AF03463A
:104E98003960FB713B6843221A80034B18460C3774
:104EA800BD465DF8047B70477800002080B400AFF1
:104EB800094B00221A60084B00225A60064B002258
:104EC8009A60054B0022DA60034B044A5A61BD46DA
:104ED8005DF8047B704700BF003C0140FFFF7F0086
:104EE80080B485B000AF78600023FB60344BFB6072
:104EF8007B689B79002B4FD03149314B1A687B680E
:104F08001B68DB4313400B602D492D4B5A687B68A7
:104F18001B68DB4313404B607B681B791A46FB68B0
:104F28001344FB60FB68FA6811687A6812680A43E0
:104F38001A602349224B9A687B681B68DB4313403D
:104F48008B601F491E4BDA687B681B68DB43134084
:104F5800CB607B685B79102B0ED11949184B9A6886
:104F68007B681B6813438B601549154BDA687B68AF
:104F78001B681343CB601DE0114BFB607B685B79BA
:104F88001A46FB681344FB60FB68FA6811687A6884
:104F980012680A431A600DE07B681B791A46FB68A1
:104FA8001344FB60FB68FA6811687A681268D24398
:104FB8000A401A601437BD465DF8047B704700BF8D
:104FC800003C014080B483B000AF78607B68002269
:104FD8001A607B6800221A717B680C225A717B6800
:104FE80000229A710C37BD465DF8047B704700BFFC
:104FF80080B483B000AF78600549054B1A697B68B7
:1050080013430B610C37BD465DF8047B704700BF46
:10501800003C014080B485B000AF78600023FB738A
:10502800084B5A697B681340002B02D00123FB739D
:1050380001E00023FB73FB7B18461437BD465DF87F
:10504800047B7047003C014080B483B000AF7860B7
:10505800034A7B6853610C37BD465DF8047B704793
:10506800003C014080B485B000AF78600023FB733A
:105078000023BB600C4B1A687B681340BB600A4B6B
:105088005A697B681340002B05D0BB68002B02D0FF
:105098000123FB7301E00023FB73FB7B18461437E5
:1050A800BD465DF8047B7047003C014080B483B086
:1050B80000AF7860034A7B6853610C37BD465DF8E2
:1050C800047B7047003C014080B500AF114A114B8A
:1050D8001B6843F0010313600E4B00229A600D4ACF
:1050E8000C4B1B6823F0847323F480331360094B43
:1050F800094A5A60074A074B1B6823F48023136048
:10510800044B0022DA6000F087F8044B4FF000628D
:105118009A6080BD003802401030002400ED00E0A5
:1051280080B487B000AF00233B6100237B6102237A
:10513800FB600023BB6002237B60324B9B6803F05B
:105148000C033B613B69042B07D0082B09D0002BCB
:105158003FD12D4B2D4A1A603FE02B4B2C4A1A6049
:105168003BE0284B5B6803F480039B0DBB60254B39
:105178005B6803F03F037B60BB68002B0DD0244ABB
:105188007B68B2FBF3F21F4B596847F6C0730B40BC
:105198009B0903FB02F37B610CE01C4A7B68B2FBB2
:1051A800F3F2184B596847F6C0730B409B0903FB91
:1051B80002F37B61134B5B6803F440331B0C013330
:1051C8005B00FB607A69FB68B2FBF3F30E4A13607D
:1051D80003E00D4B0D4A1A6000BF0A4B9B6803F0B1
:1051E800F0031B090B4AD35CDBB23B61064B1A6820
:1051F8003B6922FA03F3044A13601C37BD465DF885
:10520800047B704700380240EC0000200024F400C2
:1052180040787D01F000002080B483B000AF002307
:105228007B6000233B60354A344B1B6843F4803372
:105238001360324B1B6803F400333B607B68013317
:105248007B603B68002B03D17B68B3F5A06FF0D17E
:105258002A4B1B6803F40033002B02D001233B6068
:1052680001E000233B603B68012B42D1234A234BDA
:105278001B6C43F080531364214A214B1B6843F491
:10528800804313601D4A1D4B9B6893601B4A1B4B50
:105298009B6843F400439360184A184B9B6843F497
:1052A800A0539360154B174A5A60144A134B1B6856
:1052B80043F08073136000BF104B1B6803F000734A
:1052C800002BF9D0104B40F205621A600B4A0B4BC9
:1052D8009B6823F003039360084A084B9B6843F0DC
:1052E8000203936000BF054B9B6803F00C03082B77
:1052F800F9D10C37BD465DF8047B70470038024091
:105308000070004008544007003C024080B584B05B
:1053180000AF78600B46FB70FB7878681946FEF79B
:1053280083F87B68012283F812217B68002283F8C6
:1053380013210023FB6023E0FA6813469B00134403
:10534800DB0003F58C737A681344BB60BB680122E9
:105358005A70FB68DAB2BB681A70FB689AB2BB680D
:10536800DA80BB680022DA70BB6840229A60BB68AA
:105378000022DA60BB6800225A61FB680133FB60D7
:105388007B685B781A46FB689A42D5D80023FB6095
:1053980023E0FA6813469B001344DB0003F55C73B3
:1053A8007A681344BB60BB6800225A70FB68DAB2A3
:1053B800BB681A70FB689AB2BB68DA80BB680022C7
:1053C800DA70BB6840229A60BB680022DA60BB686A
:1053D80000225A61FB680133FB607B685B781A46E0
:1053E800FB689A42D5D87868FEF7E2F97868FEF744
:1053F800D5F878680021FEF765FA7868FEF708FBAB
:105408007868FEF7B9F91037BD4680BD80B584B01D
:1054180000AF7860084611461A460346FB700B46F3
:105428003B801346BB70FB785BB2002B0CDAFB7831
:1054380003F07F0213469B001344DB0003F58C73D3
:105448007A681344FB600BE0FB7803F07F02134695
:105458009B001344DB0003F55C737A681344FB601C
:10546800FB7803F07F03DAB2FB681A70FB78DB097C
:10547800DBB21A46FB685A703A88FB689A60FB6888
:10548800BA78DA70FB685B78002B04D0FB681B786D
:105498009AB2FB68DA80BB78022B02D1FB68002243
:1054A8001A717868F968FEF791FC002318461037DE
:1054B800BD4680BD80B584B000AF78600B46FB70F8
:1054C800FB785BB2002B0CDAFB7803F07F02134603
:1054D8009B001344DB0003F58C737A681344FB606C
:1054E8000BE0FB7803F07F0213469B001344DB00BC
:1054F80003F55C737A681344FB60FB7803F07F0361
:10550800DAB2FB681A70FB78DB09DBB21A46FB6873
:105518005A707868F968FEF7C7FC002318461037F8
:10552800BD4680BD80B586B000AFF8607A601A4687
:105538000B46FB7213463B81FB7A03F07F0213464E
:105548009B001344DB0003F55C73FA6813447B612A
:105558007B697A68DA603A897B695A617B690022DB
:105568009A617B6900225A70FB7A03F07F03DAB2F2
:105578007B691A70FB68DB78012B02D17A687B693A
:105588001A617B691B78002B04D1F8687969FEF7EA
:1055980011FE03E0F8687969FEF7CCFC0023184691
:1055A8001837BD4680BD00BF80B586B000AFF86033
:1055B8007A603B600B46FB72FB7A03F07F0213466E
:1055C8009B001344DB0003F58C73FA6813447B617A
:1055D8007B6901225A70FB7A03F07F03DAB27B6998
:1055E8001A707B697A68DA607A687B691A617B6904
:1055F80000229A617B693A685A617B691B78002BA3
:1056080004D1F8687969FEF7D5FD03E0F86879698F
:10561800FEF790FC002318461837BD4680BD00BF32
:1056280080B584B000AF78600B46FB70FB785BB246
:10563800002B0CDAFB7803F07F0213469B0013441F
:10564800DB0003F58C737A681344FB6009E0FA7891
:1056580013469B001344DB0003F55C737A6813441C
:10566800FB60FB6801229A70FB7803F07F03DAB2D3
:10567800FB681A70FB78DB09DBB21A46FB685A70C4
:105688007868F968FEF780FE002318461037BD4693
:1056980080BD00BF80B584B000AF78600B46FB705A
:1056A800FB785BB2002B0CDAFB7803F07F02134621
:1056B8009B001344DB0003F58C737A681344FB608A
:1056C80009E0FA7813469B001344DB0003F55C738A
:1056D8007A681344FB60FB6800229A70FB7803F039
:1056E8007F03DAB2FB681A70FB78DB09DBB21A4673
:1056F800FB685A707868F968FEF78AFE0023184636
:105708001037BD4680BD00BF80B582B000AF78605D
:105718000B46FB70FB785BB2002B07DAFB7803F0D3
:105728007F0378681946FEF75FF802E07868FEF7AD
:1057380099F8002318460837BD4680BD80B485B067
:1057480000AF78600B46FB700023FB60FB7803F02A
:105758007F03DAB2BB8962F30A13BB817B681B69DA
:105768007A6812691168FA680A431A601437BD46E4
:105778005DF8047B704700BF80B584B000AF7860E7
:105788007B681B695B68FB603B7B6FF341033B7382
:105798007B681B69FA685A600320FCF7A3FB103783
:1057A800BD4680BD80B584B000AF78607B681B695A
:1057B8005B68FB603B7B43F002033B737B681B69C0
:1057C800FA685A600320FCF78DFB1037BD4680BD90
:1057D80080B584B000AF78600B46FB700023BB60D7
:1057E800FB785BB2002B0CDAFB7803F07F021346E0
:1057F8009B001344DB0003F58C737A681344FB6049
:1058080009E0FA7813469B001344DB0003F55C7348
:105818007A681344FB607868F968FEF765FFB8603A
:10582800BB6818461037BD4680BD00BF80B586B03E
:1058380000AFF8600B467A60FB72FB7A5BB2002B14
:105848000CDAFB7A03F07F0213469B001344DB005B
:1058580003F58C73FA6813447B6109E0FA7A1346FE
:105868009B001344DB0003F55C73FA6813447B6107
:10587800F86879697A68FEF78DFF1837BD4680BDEC
:1058880080B483B000AF03463960FB713B681222D5
:105898001A80034B18460C37BD465DF8047B7047E9
:1058A8001C01002080B483B000AF03463960FB714F
:1058B8003B6804221A80034B18460C37BD465DF836
:1058C800047B70473C01002080B582B000AF0346DE
:1058D8003960FB71FB79002B05D1084808493A6803
:1058E800FBF7D6FA04E0074805493A68FBF7D0FA0F
:1058F800034B18460837BD4680BD00BFF059000865
:105908006C110020145A000880B582B000AF03461D
:105918003960FB71044805493A68FBF7B9FA034B4B
:1059280018460837BD4680BD385A00086C1100205B
:1059380080B582B000AF03463960FB71FB79002B5C
:1059480005D1084808493A68FBF7A2FA04E0074875
:1059580005493A68FBF79CFA034B18460837BD46D9
:1059680080BD00BF4C5A00086C1100205C5A00082A
:1059780080B582B000AF03463960FB71FB79002B1C
:1059880005D1084808493A68FBF782FA04E0054857
:1059980005493A68FBF77CFA034B18460837BD46B9
:1059A80080BD00BF6C5A00086C11002080B582B021
:1059B80000AF03463960FB71FB79002B05D108481D
:1059C80008493A68FBF764FA04E0054805493A686B
:1059D800FBF75EFA034B18460837BD4680BD00BF8B
:0859E800785A00086C11002040
:1059F00053544D3332205669727475616C20436F75
:105A00006D506F727420696E204853206D6F64650D
:105A10000000000053544D33322056697274756192
:105A20006C20436F6D506F727420696E2046532056
:105A30004D6F64650000000053544D6963726F65DB
:105A40006C656374726F6E69637300003030303060
:105A500030303030303530420000000030303030EF
:105A60003030303030353043000000005643502095
:105A7000436F6E666967000056435020496E746537
:085A800072666163650000001D
:105A880000C20100000008004D0F00085D0F00086B
:105A98006D0F0008E5100008451100089520000862
:105AA800A1200008C9200008ED200008F9200008FE
:105AB800D5200008E1200008912400085D25000891
:105AC80025240008ED26000861260008C9260008DC
