:020000040800F2
:10000000FFFF02204D5D0008393E0008453E000814
:100010004D3E0008553E00085D3E0008000000000F
:10002000000000000000000000000000653E000825
:10003000713E0008000000007D3E0008953E00086B
:100040009D5D00089D5D00089D5D00089D5D0008A8
:100050009D5D00089D5D00089D5D00089D5D000898
:100060009D5D00089D5D00089D5D00089D5D000888
:100070009D5D00089D5D00089D5D00089D5D000878
:100080009D5D00089D5D00089D5D00089D5D000868
:100090009D5D00089D5D00089D5D00089D5D000858
:1000A0009D5D00089D5D00089D5D00089D5D000848
:1000B0009D5D00089D5D00089D5D00089D5D000838
:1000C0009D5D00089D5D00089D5D00089D5D000828
:1000D0009D5D00089D5D00089D5D00089D5D000818
:1000E0009D5D00089D5D00089D5D00089D5D000808
:1000F0009D5D00089D5D00089D5D00089D5D0008F8
:100100009D5D00089D5D00089D5D00089D5D0008E7
:100110009D5D00089D5D00089D5D00089D5D0008D7
:100120009D5D00089D5D00089D5D00089D5D0008C7
:100130009D5D00089D5D00089D5D00089D5D0008B7
:100140009D5D00089D5D00089D5D00089D5D0008A7
:100150009D5D00089D5D00089D5D00089D5D000897
:100160009D5D00089D5D0008E9050008D9050008AF
:10017000B9050008C90500089D5D000800000000E1
:100180009D5D00089D5D00089D5D00089D5D000867
:100190009D5D00089D5D00089D5D00089D5D000857
:0C01A0009D5D00089D5D00089D5D00084D
:1001AC0010B5054C237833B9044B13B10448AFF3A5
:1001BC0000800123237010BDB80500200000000052
:1001CC00A05D0008084B10B51BB108480849AFF3F7
:1001DC0000800848036803B910BD074B002BFBD007
:1001EC00BDE81040184700BF00000000A05D0008EB
:1001FC00BC050020B80500200000000080B400AF52
:10020C0000231846BD465DF8047B704780B400AFF0
:10021C0000231846BD465DF8047B704780B485B05A
:10022C0000AFF860B9607A60FB68232B00F29B800A
:10023C0001A252F823F000BF7303000873030008F7
:10024C0073030008730300087303000873030008AA
:10025C00730300087303000873030008730300089A
:10026C00730300087303000873030008730300088A
:10027C00730300087303000873030008730300087A
:10028C00730300087303000873030008730300086A
:10029C00730300087303000873030008730300085A
:1002AC00730300087303000873030008730300084A
:1002BC007303000873030008D50200081F0300082D
:1002CC007303000873030008BB681B781A46BB68ED
:1002DC0001331B781B021A43BB6802331B781B04C7
:1002EC001A43BB6803331B781B0613431A46224B75
:1002FC001A60BB681A79204B1A71BB685A791E4B6D
:10030C005A71BB689A791C4B9A711B4B0122DA719A
:10031C002AE0194B1B68DAB2BB681A70BB68013350
:10032C00154A1268120AD2B21A70BB680233124A0A
:10033C001268120CD2B21A70BB6803330E4A1268E0
:10034C00120ED2B21A70BB6804330B4A12791A70AF
:10035C00BB680533084A52791A70BB680633064AE3
:10036C0092791A7000E000BF002318461437BD467E
:10037C005DF8047B704700BF0000002080B485B09E
:10038C0000AF786039600023FB6017E0114B1B68ED
:10039C007968FA680A4411780F4AD1540D4B1B68DE
:1003AC0001330C4A13600B4B1B68B3F5006F02D37F
:1003BC00084B00221A60FB680133FB60FA683B684B
:1003CC009A42E3D3002318461437BD465DF8047BEC
:1003DC00704700BFDC050020D80C002080B584B02D
:1003EC0000AF786039600023FB6009E07A68FB6835
:1003FC0013441B78184602F04DF8FB680133FB6080
:10040C00FA683B689A42F1D3002318461037BD4670
:10041C0080BD00BF80B584B000AF786002200121A0
:10042C0005F092F94FF44043BB6003237B73022326
:10043C003B730023BB730023FB7307F108032348B2
:10044C00194600F063F921480E210C2200F0CCFA79
:10045C001E480F210C2200F0C7FA4FF40053BB606A
:10046C0003237B7300233B730123BB730023FB73B8
:10047C0007F108031548194600F048F913480D21F7
:10048C000C2200F0B1FA4FF48053BB6003237B7352
:10049C0002233B730123BB730123FB7307F1080396
:1004AC000A48194600F032F908480C210C2200F0D9
:1004BC009BFA4FF48040012105F0BEF94FF000503B
:1004CC00012105F041F91037BD4680BD0004024002
:1004DC0080B584B000AF78604FF4C06000F0CCFA07
:1004EC004D233B7301237B730323BB730123FB73EA
:1004FC0007F10C03184600F0D1FA4FF4C06000F07D
:10050C00BBFA4A233B7301237B730223BB73012386
:10051C00FB7307F10C03184600F0C0FA4FF4C060EF
:10052C0000F0AAFA4B233B7301237B730123BB73AB
:10053C000123FB7307F10C03184600F0AFFA1037D8
:10054C00BD4680BD80B485B000AF78600023FB60F1
:10055C007A6813461B019B1ADB001A460A4BA3FB55
:10056C000213D21A520813449B08BB60FB68013378
:10057C00FB60FA68BB689A4200D900E0F6E71437D2
:10058C00BD465DF8047B70472549922480B582B046
:10059C0000AF78607B684FF47A7202FB03F3184665
:1005AC00FFF7D0FF0837BD4680BD00BF80B500AF58
:1005BC004FF4801002F048FE80BD00BF80B500AF44
:1005CC00014802F033FF80BD9006002080B500AFDB
:1005DC00014802F095FE80BD9006002080B500AF6A
:1005EC00014802F03FFE80BD9006002080B582B02D
:1005FC0000AF78607B683C4A934208D1012001210E
:10060C0005F038F90120002105F034F968E07B6829
:10061C00364A934208D10220012105F02BF9022021
:10062C00002105F027F95BE07B68314A934208D141
:10063C000420012105F01EF90420002105F01AF90F
:10064C004EE07B682B4A934208D10820012105F02B
:10065C0011F90820002105F00DF941E07B68264ACC
:10066C00934208D11020012105F004F9102000213B
:10067C0005F000F934E07B68204A934208D1202031
:10068C00012105F0F7F82020002105F0F3F827E010
:10069C007B681B4A934208D14020012105F0EAF8FF
:1006AC004020002105F0E6F81AE07B68154A9342D9
:1006BC0008D18020012105F0DDF88020002105F013
:1006CC00D9F80DE07B68104A934209D14FF4807041
:1006DC00012105F0CFF84FF48070002105F0CAF825
:1006EC000837BD4680BD00BF000002400004024038
:1006FC0000080240000C02400010024000140240AE
:10070C0000180240001C02400020024080B487B058
:10071C0000AF7860396000237B6100233B610023CC
:10072C00FB6000237B6176E07B69012202FA03F314
:10073C003B613B681A683B691340FB60FA683B6994
:10074C009A4265D17B681A687B695B001946032362
:10075C008B40DB431A407B681A607B681A683B68E5
:10076C001B7919467B695B0001FA03F31A437B681A
:10077C001A603B681B79012B03D03B681B79022B59
:10078C002ED17B689A687B695B00194603238B40EA
:10079C00DB431A407B689A607B689A683B685B799C
:1007AC0019467B695B0001FA03F31A437B689A6074
:1007BC007B685A687B699BB2194601238B40DB43EB
:1007CC001A407B685A607B685B683A68927911467C
:1007DC007A6992B201FA02F292B21A437B685A60B9
:1007EC007B68DA687B699BB25B00032101FA03F337
:1007FC00DB431A407B68DA607B68DA683B68DB793C
:10080C0019467B695B0001FA03F31A437B68DA60D3
:10081C007B6901337B617B690F2B85D91C37BD4606
:10082C005DF8047B704700BF80B483B000AF786084
:10083C007B684FF6FF721A607B6800221A717B6826
:10084C0000225A717B6800229A717B680022DA714F
:10085C000C37BD465DF8047B704700BF80B485B093
:10086C0000AF78600B467B804FF48033FB607A8856
:10087C00FB681343FB60FA687B68DA617A887B68F3
:10088C00DA61FA687B68DA617B68DB69FB607B683C
:10089C00DB69FB601437BD465DF8047B704700BF15
:1008AC0080B485B000AF78600B467B800023FB736F
:1008BC007B681A697B881340002B02D00123FB73E1
:1008CC0001E00023FB73FB7B18461437BD465DF833
:1008DC00047B704780B483B000AF78607B681B6981
:1008EC009BB218460C37BD465DF8047B704700BFC1
:1008FC0080B485B000AF78600B467B800023FB731F
:10090C007B685A697B881340002B02D00123FB7350
:10091C0001E00023FB73FB7B18461437BD465DF8E2
:10092C00047B704780B483B000AF78607B685B69F0
:10093C009BB218460C37BD465DF8047B704700BF70
:10094C0080B483B000AF78600B467B807B687A887C
:10095C001A830C37BD465DF8047B704780B483B0B6
:10096C0000AF78600B467B807B687A885A830C37A3
:10097C00BD465DF8047B704780B483B000AF7860EF
:10098C000B467B8013467B707B78002B03D07B68F7
:10099C007A881A8302E07B687A885A830C37BD46C2
:1009AC005DF8047B704700BF80B483B000AF786003
:1009BC000B467B807A887B685A610C37BD465DF8A4
:1009CC00047B704780B483B000AF78600B467B80AB
:1009DC007B685A697B885A407B685A610C37BD46E4
:1009EC005DF8047B704700BF80B485B000AF7860C1
:1009FC000B467B8013467B700023FB600023BB609F
:100A0C007B787A8802F0070292009340FB607B8827
:100A1C00DB089BB218467B88DB089BB21A467B68C6
:100A2C00083253F822207B8803F007039B001946F9
:100A3C000F238B40DB4302EA03017B6800F10802C1
:100A4C0043F822107B88DB089BB21A467B6808327D
:100A5C0053F82220FB681343BB607B88DB089BB2F6
:100A6C001A467B680832B96843F822101437BD4621
:100A7C005DF8047B704700BF80B483B000AF786032
:100A8C00054A7B6843F0BF6343F40033D3600C37F3
:100A9C00BD465DF8047B704700ED00E080B485B086
:100AAC0000AF78600023FB730023BB730F237B73B1
:100ABC007B68DB78002B38D0264BDB68DB4303F4F8
:100ACC00E0631B0AFB73FB7BC3F10403BB737A7BF0
:100ADC00FB7B42FA03F37B737B685B781A46BB7B28
:100AEC0002FA03F3FB737B689A787B7B1340DAB2D0
:100AFC00FB7B1343FB73FB7B1B01FB73164A7B686D
:100B0C001B781344FA7B83F80023134A7B681B7809
:100B1C005B09DBB218467B681B7803F01F030121CD
:100B2C0001FA03F342F820300FE00B497B681B7885
:100B3C005B09DBB218467B681B7803F01F030122AC
:100B4C009A4000F1200341F823201437BD465DF88C
:100B5C00047B704700ED00E000E100E080B483B05E
:100B6C0000AF7860396007493B6823F0604323F09D
:100B7C007F037A6813438B600C37BD465DF8047BAA
:100B8C00704700BF00ED00E080B483B000AF0346B7
:100B9C000A46FB711346BB71BB79002B06D0094981
:100BAC00084B1A69FB7913430B6106E00549054BA9
:100BBC001A69FB79DB4313400B610C37BD465DF8BA
:100BCC00047B704700ED00E080B483B000AF786028
:100BDC007B68042B06D1094A084B1B6843F00403BD
:100BEC00136005E0054A054B1B6823F004031360F2
:100BFC000C37BD465DF8047B704700BF10E000E089
:100C0C0080B485B000AF78600023FB607B68DB6844
:100C1C004FF0FF325A607B68DB686FF080425A619C
:100C2C00FB7B43F08003FB737B7B43F008037B73FC
:100C3C007B68DB68FA689A611437BD465DF8047B03
:100C4C00704700BF80B586B000AF78600023FB749E
:100C5C0000237B610023FB600320FFF773FC7B68A0
:100C6C00DB681B69FB607B6901337B617B69174A1D
:100C7C00934201D9002324E0FB68DB0FDBB2002B8D
:100C8C00EAD000237B61FB6843F00103FB607B68C7
:100C9C00DB68FA681A617B68DB681B69FB607B693F
:100CAC0001337B617B69094A934200D905E0FB68FB
:100CBC0003F00103DBB2012BEDD00320FFF742FC64
:100CCC00FB7C18461837BD4680BD00BF400D0300A5
:100CDC0080B489B000AFF860B96011461A460B4673
:100CEC00FB711346BB800023FB76FB68DB78002B83
:100CFC0022D100237B610023FB61BB880333002BD3
:100D0C0000DA03339B107B61FB79FA6832339B006A
:100D1C0013449B683B610023FB6109E0BB681A68C4
:100D2C003B691A60FB690133FB61BB680433BB6030
:100D3C00FA697B699A42F1D3FB7E18462437BD468B
:100D4C005DF8047B704700BF80B489B000AFF860D9
:100D5C00B9601346FB800023FB61FB880333002B37
:100D6C0000DA03339B10BB61FB68D3F8D0307B6196
:100D7C000023FB6109E07B691A68BB681A60FB6998
:100D8C000133FB61BB680433BB60FA69BB699A42EF
:100D9C00F1D3BB6818462437BD465DF8047B704719
:100DAC0080B487B000AF78600B46FB7000233B61CA
:100DBC000023FB737B680022DA707B6801229A7037
:100DCC007B6840229A80FB78012B13D14FF0A04313
:100DDC003B617B680122DA727B6808221A707B689F
:100DEC0004225A707B684FF4A072DA807B6802226E
:100DFC001A7217E0FB78002B14D1484B3B617B68CF
:100E0C000022DA727B680C221A707B6806225A70F8
:100E1C007B684FF4A062DA807B6802221A727B68CE
:100E2C0001229A723A697B68DA603B6903F50063C8
:100E3C001A467B681A6100237B611CE07B695A01AE
:100E4C003B69134403F5106319467A687B690433D4
:100E5C009B00134499607B695A013B69134403F569
:100E6C00306319467A687B6914339B0013445960CC
:100E7C007B6901337B617B685B781A467B699A429C
:100E8C00DCD83B6903F580631A467B685A613B6981
:100E9C0003F588631A467B68C3F8CC2000237B617A
:100EAC000FE07B695A013B69134403F5A0631946B3
:100EBC007A687B6922339B00134499607B69013308
:100ECC007B617B681B781A467B699A42E9D80023C0
:100EDC007B610FE07B691A033B69134403F5805374
:100EEC0019467A687B6932339B00134499607B699D
:100EFC0001337B617B681B781A467B699A42E9D87F
:100F0C003B6903F560631A467B68C3F80C21FB7BD5
:100F1C0018461C37BD465DF8047B70470000044042
:100F2C0080B586B000AF78600023FB7500233B6171
:100F3C000023FB600023BB607B681B7A012B42D132
:100F4C007B68DB689B6BFB60BB7B6FF30003BB7345
:100F5C007B685B7A002B03D0BB7B43F01003BB7325
:100F6C007B68DB68FA689A6300233B617B68DB680B
:100F7C00DB683B613B7C6FF386133B74BB7C6FF38C
:100F8C008613BB74BB7C6FF34103BB74BB7C6FF3E8
:100F9C00C303BB747B68DB683A69DA607868FFF777
:100FAC0051FE7B68DB78012B3DD13B7A052262F345
:100FBC0044033B723B7A43F020033B727B68DB6853
:100FCC00BA689A602FE07B68DB68DB683B613B7C2E
:100FDC0043F040033B747B68DB683A69DA607868FD
:100FEC00FFF730FE0023FB60BB7B43F00103BB73B8
:100FFC00BB7B43F00403BB73BB7B43F00803BB73A5
:10100C00BB7B43F02003BB737B685B7A002B03D064
:10101C00BB7B43F01003BB737B68DB68FA689A6395
:10102C001420FFF7B3FA7B68DB78012B10D17B68B7
:10103C00DB689B68BB603B7A052262F344033B721E
:10104C003B7A43F020033B727B68DB68BA689A609A
:10105C00FB7D18461837BD4680BD00BF80B485B0F7
:10106C0000AF78600023FB730023BB603B7A43F036
:10107C0001033B727B68DB687A68D2689168BA6856
:10108C000A439A60FB7B18461437BD465DF8047B17
:10109C00704700BF80B485B000AF78600023FB734D
:1010AC000023BB603B7A43F001033B727B68DB6837
:1010BC007A68D2689168BA68D2430A409A60FB7B1E
:1010CC0018461437BD465DF8047B704780B586B072
:1010DC0000AF786039600023FB7400237B61002330
:1010EC00FB60FB6843F02003FB603B68DBB203F062
:1010FC001F03DBB203F01F039B01FA6822F4F862B2
:10110C001343FB607B68DB68FA681A617B68DB68F9
:10111C001B69FB607B6901337B617B69094A9342E4
:10112C0000D906E0FB685B0903F00103DBB2012B7D
:10113C00ECD00320FFF706FAFB7C18461837BD46A7
:10114C0080BD00BF400D030080B586B000AF786055
:10115C000023FB7400237B610023FB60FB6843F0DE
:10116C001003FB607B68DB68FA681A617B68DB68DC
:10117C001B69FB607B6901337B617B69094A934284
:10118C0000D906E0FB681B0903F00103DBB2012B5D
:10119C00ECD00320FFF7D6F9FB7C18461837BD4678
:1011AC0080BD00BF400D030080B584B000AF7860F7
:1011BC000B46FB700023FB737B68DB68DB68BB6052
:1011CC00FB7A6FF34513FB72FB7A6FF38613FB729A
:1011DC00FB78012B04D1FB7A43F02003FB7206E071
:1011EC00FB78002B03D1FB7A43F04003FB727B6846
:1011FC00DB68BA68DA603220FFF7C8F9FB7B184667
:10120C001037BD4680BD00BF80B483B000AF78609E
:10121C007B68DB685B6903F0010318460C37BD463D
:10122C005DF8047B704700BF80B582B000AF78607A
:10123C007868FFF7E9FF0346012B14BF0123002355
:10124C00DBB218460837BD4680BD00BF80B582B002
:10125C0000AF78607868FFF7D7FF0346012B0CBF0F
:10126C0001230023DBB218460837BD4680BD00BF02
:10127C0080B485B000AF78600023FB607B68DB68CE
:10128C005B69FB607B68DB689B69FA681340FB60F9
:10129C00FB6818461437BD465DF8047B704700BFE9
:1012AC0080B483B000AF78607B68DB685B681846FD
:1012BC000C37BD465DF8047B704700BF80B485B029
:1012CC0000AF78600B46FB707B681B691B68FB608A
:1012DC00FB7803F00303DAB23B7B62F301033B734D
:1012EC007B681B69FA681A601437BD465DF8047B8D
:1012FC00704700BF80B58CB000AF7860002387F8D2
:10130C002B3000237B6200233B620023FB61002314
:10131C00BB6100237B617B68D3F80C3100221A601F
:10132C007B681B691B683B6297F821306FF3C40321
:10133C0087F821307B681B693A6A1A607B68DB7A14
:10134C00002B57D17B681B7A012B04D178680021C4
:10135C00FFF7B4FF03E078680121FFF7AFFF7B686C
:10136C00DB684FF400725A624023FB834FF4007326
:10137C00BB837B68DB68FA699A62BA8BFB8B13447C
:10138C009BB23B834FF4BA737B837B68DB68BA698F
:10139C00C3F804213A8B7B8B13449BB23B834023D1
:1013AC007B837B68DB68BA69C3F808213A8B7B8B3B
:1013BC0013449BB23B8300237B837B68DB68BA6955
:1013CC00C3F80C213A8B7B8B13449BB23B830023D9
:1013DC007B837B68DB68BA69C3F810213A8B7B8B03
:1013EC0013449BB23B8300237B837B68DB68BA6925
:1013FC00C3F8142178681021FFF768FE7868FFF7AE
:10140C00A3FE7B681B6900221A617B681B690022A2
:10141C005A617B681B694FF0FF329A617B681B69CC
:10142C000022DA610023FB623AE07A68FB6A04333B
:10143C009B0013449B681B687B6297F8273023F052
:10144C007F03DBB2002B0ED000237B6297F8273092
:10145C0043F0400387F8273097F8273043F0080310
:10146C0087F8273001E000237B627A68FB6A04333B
:10147C009B0013449B687A6A1A607A68FB6A04338F
:10148C009B0013449B6800221A617A68FB6A043340
:10149C009B0013449B68FF229A60FB6A0133FB623A
:1014AC007B685B781A46FB6A9A42BED80023FB62C3
:1014BC0035E07A68FB6A14339B0013445B681B6845
:1014CC00FB60FB7B23F07F03DBB2002B0AD00023F5
:1014DC00FB60FB7B43F04003FB73FB7B43F0080397
:1014EC00FB7301E00023FB607A68FB6A14339B00FA
:1014FC0013445B68FA681A607A68FB6A14339B00C1
:10150C0013445B6800221A617A68FB6A14339B00EF
:10151C0013445B68FF229A60FB6A0133FB627B68B1
:10152C005B781A46FB6A9A42C3D800237B617B7DA9
:10153C0043F001037B757B681B697A68126911693A
:10154C007A69D24311407A690A431A617B68DB7865
:10155C00012B1BD100233B613B7C43F001033B740B
:10156C003B7C43F002033B743B8A402262F38A03C8
:10157C003B82BB7C43F00103BB747B8A402262F349
:10158C0049037B827B681B693A691A63786800F0AF
:10159C0007F897F82B3018463037BD4680BD00BF92
:1015AC0080B584B000AF78600023FB730023BB6070
:1015BC007B68DB6800229A617B68DB686FF0804295
:1015CC005A617868FFF71CFB7B68DB78002B03D132
:1015DC003B7A43F010033B727B7A43F008037B7237
:1015EC007B7A43F010037B727B7A43F020037B728F
:1015FC00BB7A43F00403BB72BB7A43F00803BB72A3
:10160C003B7A43F008033B72BB7A43F01003BB7286
:10161C00BB7A43F02003BB727B68DB687A68D268C4
:10162C009169BA68D2431140BA680A439A61FB7B4C
:10163C0018461037BD4680BD80B485B000AF7860C9
:10164C000023FB737B681B699B68BB603B7AC3F30D
:10165C004103DBB2022B09D0032B04D0012B02D0A7
:10166C000323FB7305E00223FB7302E00123FB73EE
:10167C0000BFFB7B18461437BD465DF8047B7047F2
:10168C0080B487B000AF78600023FB750023BB608B
:10169C007B681B699B683B617B689B691B68FB6073
:1016AC003B7CC3F34103DBB2022B04D0BB896FF349
:1016BC000A03BB8105E0BB89032262F30A03BB81E9
:1016CC0000BF7B689B69FA681A607B7A43F0010360
:1016DC007B727B681B697A6812695168BA68D2435D
:1016EC001140BA680A435A60FB7D18461C37BD4648
:1016FC005DF8047B704700BF80B487B000AF7860A2
:10170C0039600023FB740023FB600023BB603B6843
:10171C005B78012B0FD13B681B787A6804339B00F4
:10172C0013449B687B613B681B781A4601239340EA
:10173C009BB23B810EE03B681B787A6814339B00AC
:10174C0013445B687B613B681B781A46012393400A
:10175C009BB27B817B691B68FB607B7B23F07F03E7
:10176C00DBB2002B27D13B689B689BB2C3F30A0307
:10177C009AB2BB8962F30A03BB813B68DB7803F046
:10178C000303DAB2BB7B62F38303BB733B68DB8876
:10179C00DBB203F00F03DAB2FB8962F38913FB812E
:1017AC00FB7B43F01003FB737B7B43F080037B7369
:1017BC00FA687B691A603B681B78012B0CD17B683B
:1017CC00DB7A002B08D17B681B697A681269D16BB4
:1017DC00BA680A43DA6307E07B681B697A681269A6
:1017EC00D169BA680A43DA61FB7C18461C37BD46DE
:1017FC005DF8047B704700BF80B487B000AF7860A1
:10180C0039600023FB740023FB600023BB603B6842
:10181C005B78012B0FD13B681B787A6804339B00F3
:10182C0013449B687B613B681B781A4601239340E9
:10183C009BB23B810EE03B681B787A6814339B00AB
:10184C0013445B687B613B681B781A460123934009
:10185C009BB27B817B7B6FF3C7137B73FA687B69CD
:10186C001A603B681B78012B0DD17B68DB7A002B4F
:10187C0009D17B681B697A681269D16BBA68D2434B
:10188C000A40DA6308E07B681B697A681269D169DF
:10189C00BA68D2430A40DA61FB7C18461C37BD4655
:1018AC005DF8047B704700BF80B588B000AF7860EE
:1018BC0039600023FB770023BB6100237B6100238D
:1018CC003B613B685B78012B40F0AB803B681B783D
:1018DC007A6804339B0013449B681B687B613B68EC
:1018EC001B787A6804339B0013449B681B693B612B
:1018FC003B685B69002B09D13B696FF312033B61B9
:10190C007B8A012262F3CC037B8222E03B685B6919
:10191C00C3F312023B6962F312033B613B685A69E1
:10192C003B689B6813445A1E3B689B68B2FBF3F3FD
:10193C009BB2C3F309039AB27B8A62F3CC037B821A
:10194C003B68DB78012B04D1FB7C012262F346134C
:10195C00FB743B681B787A6804339B0013449B68C8
:10196C003A691A617B68DB78012B0AD13B681B78DA
:10197C007A6804339B0013449B683A6812695A6175
:10198C0015E03B68DB78012B11D03B685B69002BC1
:10199C000DD03B681B781A4601239340BB617B68D2
:1019AC001B697A681269516BBA690A435A633B68BE
:1019BC00DB78012B14D17B681B699B68FB60FB688F
:1019CC00C3F30D239BB203F00103002B04D1FB7D69
:1019DC0043F02003FB7503E0FB7D43F01003FB7524
:1019EC00FB7D43F00403FB75FB7D43F08003FB752B
:1019FC003B681B787A6804339B0013449B687A69B4
:101A0C001A603B68DB78012B40F089803B68D96811
:101A1C003B681A783B685B699BB27868FFF758F9AA
:101A2C007DE03B681B787A6814339B0013445B6839
:101A3C001B687B613B681B787A6814339B001344EA
:101A4C005B681B693B613B685B69002B0DD13B6894
:101A5C009B68C3F312023B6962F312033B617B8AFE
:101A6C00012262F3CC037B8220E03B685A693B681D
:101A7C009B6813445A1E3B689B68B2FBF3F39BB202
:101A8C00C3F309039AB27B8A62F3CC037B827B8A11
:101A9C00C3F3C9039BB21A463B689B6803FB02F372
:101AAC00C3F312023B6962F312033B613B681B7880
:101ABC007A6814339B0013445B683A691A617B683B
:101ACC00DB78012B09D13B681B787A6814339B00B7
:101ADC0013445B683A6812695A613B68DB78012BE6
:101AEC000CD13B685B79002B04D0FB7D43F02003C9
:101AFC00FB7503E0FB7D43F01003FB75FB7D43F0AE
:101B0C000403FB75FB7D43F08003FB753B681B787E
:101B1C007A6814339B0013445B687A691A60FB7F04
:101B2C0018462037BD4680BD80B489B000AF7860C0
:101B3C0039600023FB770023BB6100233B6100234A
:101B4C00BB603B685B78012B70D17B689B697B61C8
:101B5C007B691B683B617B691B69BB603B685B698C
:101B6C00002B09D13B7A6FF306033B72BB7A01223F
:101B7C0062F3C403BB7223E03B685A693B689B6801
:101B8C009A420ED93B689A683B685A613B689B68DD
:101B9C00DBB203F07F03DAB23B7A62F306033B72EB
:101BAC0009E03B685B69DBB203F07F03DAB23B7A96
:101BBC0062F306033B72BB7A012262F3C403BB726D
:101BCC00BA687B691A617B68DB78012B09D13B68A9
:101BDC001B787A6804339B0013449B683A6812693B
:101BEC005A61FB7C43F00403FB74FB7C43F08003E1
:101BFC00FB743A697B691A607B68DB78002B76D1C1
:101C0C003B685B69002B72D03B681B781A4601233A
:101C1C0093401A46BB691343BB617B681B697A68A6
:101C2C001269516BBA690A435A6360E03B681B78CE
:101C3C007A6814339B0013445B681B683B613B68F8
:101C4C001B787A6814339B0013445B681B69BB6078
:101C5C003B685B69002B0FD13B689B68DBB203F0E0
:101C6C007F03DAB23B7A62F306033B72BB7A012242
:101C7C0062F3C403BB7212E03B689A683B685A611A
:101C8C003B689B68DBB203F07F03DAB23B7A62F30A
:101C9C0006033B72BB7A012262F3C403BB723B683E
:101CAC001B787A6814339B0013445B68BA681A611A
:101CBC007B68DB78012B09D13B681B787A6814337D
:101CCC009B0013445B683A6812695A61FB7C43F0D1
:101CDC000403FB74FB7C43F08003FB743B681B78B0
:101CEC007A6814339B0013445B683A691A60FB7F73
:101CFC0018462437BD465DF8047B704780B487B026
:101D0C0000AF786039600023FB750023FB603B68F3
:101D1C005B78012B1CD13B681B787A6804339B00E1
:101D2C0013449B683B613B691B68FB60FB7B23F0A6
:101D3C007F03DBB2002B03D0FB7B43F04003FB7330
:101D4C00BB7B43F02003BB73FA683B691A6011E05C
:101D5C003B681B787A6814339B0013445B683B61C7
:101D6C003B691B68FB60BB7B43F02003BB73FA68C9
:101D7C003B691A60FB7D18461C37BD465DF8047B39
:101D8C00704700BF80B487B000AF78603960002323
:101D9C00FB740023FB603B685B78012B08D13B682C
:101DAC001B787A6804339B0013449B687B6107E0C3
:101DBC003B681B787A6814339B0013445B687B6127
:101DCC007B691B68FB60BB7B6FF34513BB733B6884
:101DDC00DB78032B03D03B68DB78022B03D1FB7B36
:101DEC0043F01003FB73FA687B691A60FB7C18469E
:101DFC001C37BD465DF8047B704700BF80B485B0CE
:101E0C0000AF78607B681B699B69FB607B681B6912
:101E1C00DB69FA681340FB60FB681B0C184614372F
:101E2C00BD465DF8047B704780B485B000AF786028
:101E3C000B46FB70FB787A6814339B0013445B6889
:101E4C009B68FB607B681B695B69FA681340FB60ED
:101E5C00FB6818461437BD465DF8047B704700BF1D
:101E6C0080B485B000AF78607B681B699B69FB60B0
:101E7C007B681B69DB69FA681340FB60FB689BB2EB
:101E8C0018461437BD465DF8047B704780B487B0A4
:101E9C0000AF786000233B61FB7C43F0C003FB7414
:101EAC00BB7C012262F3C403BB743B7C182262F33B
:101EBC0006033B747B685B6D3A691A617B68DB785F
:101ECC00012B16D10023FB607B685B6D7A6802F2F4
:101EDC00CC525A617B685B6D1B68FB60FB7B43F0EB
:101EEC008003FB734FF08023FB607B685B6DFA68AB
:101EFC001A601C37BD465DF8047B704780B586B010
:101F0C0000AF78607B68D3F81831002B39D07B6830
:101F1C001B699B683B613B7C03F00103DBB2002B2C
:101F2C002FD07B689B7A002B11D07B6803F58673CE
:101F3C001B68FB603B7B6FF341033B733B7B6FF395
:101F4C0000033B737B68D3F80C31FA681A600023EA
:101F5C007B613B7D43F001033B757B681B697A68B1
:101F6C00126951687A690A435A600520FEF70EFB24
:101F7C007B681B697A68126951687A69D2430A4096
:101F8C005A601837BD4680BD80B485B000AF78600C
:101F9C007B689B7A002B1BD07B681B699B68FB6062
:101FAC003B7B03F00103DBB2002B11D07B6803F504
:101FBC0086731B68BB603B7A6FF341033B723B7AC1
:101FCC006FF300033B727B68D3F80C31BA681A606C
:101FDC001437BD465DF8047B704700BF80B584B0F4
:101FEC0000AF78607B68012283F812210023FB602C
:101FFC0012E07A68FB6804339B0013449B68FF2251
:10200C009A607A68FB6814339B0013445B68FF2268
:10201C009A60FB680133FB607B685B781A46FB684F
:10202C009A42E6D87B681B6900221A617B681B699F
:10203C0000225A617B681B690022DA617B681B698C
:10204C004FF0FF329A617868FFF77EF878681021BC
:10205C00FFF73CF81037BD4680BD00BF80B487B099
:10206C0000AF7860396000237B610023FB603B6824
:10207C005B78012B1FD13B681B787A6804339B007B
:10208C0013449B683B613B691B68FB60BB7B03F0A3
:10209C002003DBB2002B02D010237B612DE0BB7B35
:1020AC0003F00203DBB2002B02D020237B6124E07F
:1020BC0030237B6121E03B681B787A6814339B00EA
:1020CC0013445B683B613B691B68FB60BB7B03F0A3
:1020DC002003DBB2002B03D04FF480537B610CE068
:1020EC00BB7B03F00203DBB2002B03D04FF4005395
:1020FC007B6102E04FF440537B617B6918461C37CF
:10210C00BD465DF8047B704780B586B000AFF860C3
:10211C00B9607A6000233B61BB685B78012B40D1CE
:10212C00BB681B78FA6804339B0013449B687B6183
:10213C007B691B683B617B68102B04D1F868B9681C
:10214C00FFF7DCFD73E07B68202B04D1FB7C43F0B4
:10215C000803FB7468E07B68302B1AD1BB7C03F05E
:10216C002003DBB2002B07D0BB6800225A71F86841
:10217C00B968FFF707FE5AE0FB7C43F00403FB74DD
:10218C007B7C43F080037B74FB7C43F08003FB740B
:10219C004AE07B68002B47D17B7C6FF3C7137B74C1
:1021AC0042E0BB681B78FA6814339B0013445B68ED
:1021BC007B617B691B683B617B68B3F5805F04D1F5
:1021CC00BB7C43F02003BB742EE07B68B3F5005F4F
:1021DC0004D1FB7C43F00803FB7425E07B68B3F56A
:1021EC00405F1AD1BB7C03F02003DBB2002B07D07D
:1021FC00BB6800225A71F868B968FFF7C3FD16E096
:10220C00FB7C43F00403FB747B7C43F080037B7406
:10221C00FB7C43F08003FB7406E07B68002B03D14E
:10222C007B7C6FF3C7137B743A697B691A60183730
:10223C00BD4680BD80B582B002AF0C4B00930C48FC
:10224C0000210C4A0C4B00F0ADF90C4B00221A602B
:10225C000B4B00221A600B4B00221A600A4B012216
:10226C001A7000231846BD4680BD00BF50000020E8
:10227C00900600203C010020F800002004060020FD
:10228C000C06002008060020D405002080B400AF06
:10229C00054B1B68002B0CBF01230023DBB2184637
:1022AC00BD465DF8047B70470806002080B400AF83
:1022BC00054B1B68802B0CBF01230023DBB2184697
:1022CC00BD465DF8047B70470806002080B485B0DD
:1022DC0000AF0346FB71124B1B68FB81114B1B6853
:1022EC00BB8113E0BB89802B01D10023BB81BB894F
:1022FC000D4AD25CFB79DBB29A4201D1012309E091
:10230C00BB890133BB81FB89013BFB81FB89002B22
:10231C00E8D1002318461437BD465DF8047B70479E
:10232C00080600200C0600201006002080B483B0A4
:10233C0000AF7860154B1B68002B1DD0144B1B682D
:10234C007F2B02D9124B00221A60114B1B68114AC9
:10235C00D25C7B681A700E4B1B680E4A0021D1545C
:10236C000B4B1B6801330A4A1360084B1B68013B7B
:10237C00064A1360032303E07B6800221A700423CF
:10238C0018460C37BD465DF8047B704708060020E4
:10239C000C0600201006002080B584B000AF034668
:1023AC00FB71FB79DBB2FB7307F10F0318460121BC
:1023BC00FDF7E4FF002318461037BD4680BD00BF73
:1023CC0080B582B000AF786006E07B685A1C7A60FA
:1023DC001B781846FFF7E0FF7B681B78002BF4D1C5
:1023EC00002318460837BD4680BD00BF80B582B0BB
:1023FC0000AF7860396078683968FDF7BFFF00235B
:10240C0018460837BD4680BD80B584B000AF7860F3
:10241C000B467B800023FB81FFF738FF0346002B24
:10242C000AD10A20FFF752FF0346002B06D1FFF713
:10243C003DFF0346002B01D1002326E01AE000BF2C
:10244C0007F10D031846FFF771FF0346032BF7D175
:10245C00FB897A6813447A7B1A70FB897A68134477
:10246C001B780A2B03D1FB890133FB8107E0FB8925
:10247C000133FB81FA897B88013B9A42DFDBFB89C4
:10248C007A68134400221A70FB8918461037BD462F
:10249C0080BD00BF80B483B000AF0346FB71114B0D
:1024AC001B687F2B17D8104B1B687F2B02D90E4B48
:1024BC0000221A600C4B1B680C49FA79CA540A4B5F
:1024CC001B680133084A1360064B1B680133054A2D
:1024DC001360002300E0022318460C37BD465DF85C
:1024EC00047B70470806002004060020100600201C
:1024FC0080B400AF064B1B78002B02D0054B1B7829
:10250C0000E001231846BD465DF8047B704700BF10
:10251C00D40500204C00002080B483B000AF78605C
:10252C000E4B1A687B681A600C4B9A797B685A714F
:10253C000A4B5A797B689A71084B1A797B681A7125
:10254C00064BDA797B68DA71044B0022DA710023CE
:10255C0018460C37BD465DF8047B70470000002020
:10256C0080B500AF01F0B8FEFFF764FE0B4B1B68A3
:10257C00B3F5FA7F04D10A4B4FF480425A830BE037
:10258C00064B1B68B3F57A7F06D1044B00221A6008
:10259C00034B4FF480421A83E8E700BF840C002001
:1025AC000018024080B584B000AFF8607A603B60E0
:1025BC000B46FB72F868FDF72DFFF86800F01CF86D
:1025CC00FB683A68C3F8E425FB68BA69C3F8E825E8
:1025DC00FB687A68C3F8EC25FB7AF868194600F0BA
:1025EC006BFAFB68D3F8E8351B689847F868FDF779
:1025FC006FFF1037BD4680BD80B483B000AF7860EC
:10260C00002318460C37BD465DF8047B704700BFAD
:10261C0080B584B000AF786007F10803786819467C
:10262C0002F0C0FB3B7A03F01F03012B0AD0022BF4
:10263C000FD0002B14D107F108037868194601F06C
:10264C0087FF16E007F108037868194601F0D0FF00
:10265C000FE007F108037868194601F0FDFF08E068
:10266C003B7A23F07F03DBB27868194600F0B4FBA9
:10267C0000BF002318461037BD4680BD80B584B01E
:10268C0000AF78600B46FB70FB78002B44D17B6865
:10269C0003F55D73FB607B6893F81131032B4ED10E
:1026AC00FB68DA69FB689B689A4220D9FB68DA6997
:1026BC00FB689B68D21AFB68DA617B68DB78012BBC
:1026CC0006D1FB68DA68FB689B681A44FB68DA6021
:1026DC00FB68D968FB689A68FB68DB69934228BF82
:1026EC0013469BB278681A4602F0EEFC27E07B6832
:1026FC00D3F8E4351B69002B0AD07B6893F81231B0
:10270C00032B05D17B68D3F8E4351B6978689847AF
:10271C00786802F0EDFC12E07B68D3F8E4359B6935
:10272C00002B0CD07B6893F81231032B07D17B68FC
:10273C00D3F8E4359B69FA787868114698470023FA
:10274C0018461037BD4680BD80B584B000AF7860A8
:10275C000B46FB70FB78002B6CD17B6803F58E73FA
:10276C00FB607B6893F81131022B56D1FB68DA6958
:10277C00FB689B689A421CD9FB68DA69FB689B680A
:10278C00D21AFB68DA617B68DB78012B06D1FB6817
:10279C00DA68FB689B681A44FB68DA60FB68DA68E5
:1027AC00FB68DB699BB2786811461A4602F058FC4C
:1027BC0033E0FB681B6AFA689268B3FBF2F102FB28
:1027CC0001F29B1A002B14D1FB681A6AFB689B68F8
:1027DC009A420ED3FB681A6AFB685B6A9A4208D26B
:1027EC0078680021002202F03BFCFB6800225A6250
:1027FC0013E07B68D3F8E435DB68002B0AD07B68E8
:10280C0093F81231032B05D17B68D3F8E435DB68E0
:10281C0078689847786802F083FC7B6893F81631E7
:10282C00012B1AD1786800F01DF87B68002283F820
:10283C00162112E07B68D3F8E4355B69002B0CD0D1
:10284C007B6893F81231032B07D17B68D3F8E435FE
:10285C005B69FA7878681146984700231846103758
:10286C00BD4680BD80B483B000AF78607B681B69C7
:10287C00044A12685A60002318460C37BD465DF8AE
:10288C00047B70478C0C002080B582B000AF786060
:10289C00786800214022002300F090F978688021AC
:1028AC004022002300F08AF97B68012283F8122170
:1028BC007B68D3F8E8355B687A689278104698475D
:1028CC00002318460837BD4680BD00BF80B582B0D6
:1028DC0000AF78607B68D3F8E8351B6998477B6854
:1028EC0093F813217B6883F812217B68032283F809
:1028FC001221002318460837BD4680BD80B582B032
:10290C0000AF78607B6893F812217B6883F8132101
:10291C007B68042283F812217B68D3F8E835DB68E6
:10292C009847002318460837BD4680BD80B582B055
:10293C0000AF78607B68D3F8E435DB69002B05D0F9
:10294C007B68D3F8E435DB69786898470023184630
:10295C000837BD4680BD00BF80B582B000AF78603F
:10296C000B46FB707B68D3F8E4351B68FA78786803
:10297C00114698477B68D3F8E8359B689847002345
:10298C0018460837BD4680BD80B582B000AF786070
:10299C000B46FB707B68D3F8E4355B68FA78786893
:1029AC0011469847002318460837BD4680BD00BF26
:1029BC0080B582B000AF78607B68D3F8E4351B6AD1
:1029CC0078689847002318460837BD4680BD00BF7D
:1029DC0080B582B000AF78607B68D3F8E4355B6A71
:1029EC0078689847002318460837BD4680BD00BF5D
:1029FC0080B400AF034B05221A70BD465DF8047B12
:102A0C00704700BF4C00002080B483B000AF034679
:102A1C00FB71044B05221A700C37BD465DF8047B24
:102A2C00704700BF4C00002080B400AF034B06225F
:102A3C001A70BD465DF8047B704700BF4C00002047
:102A4C0080B400AF034B05221A70BD465DF8047BC1
:102A5C00704700BF4C00002080B400AF034B052230
:102A6C001A70BD465DF8047B704700BF4C00002017
:102A7C0080B400AF034B05221A70BD465DF8047B91
:102A8C00704700BF4C00002080B400AF034B052200
:102A9C001A70BD465DF8047B704700BF4C000020E7
:102AAC0080B400AF034B1B781846BD465DF8047B21
:102ABC00704700BF4C00002080B584B000AF786038
:102ACC000B46FB70FB7878681946FEF769F97B6852
:102ADC00012283F812217B68002283F81421002341
:102AEC00FB6024E0FA6813469B001344DB0003F5FB
:102AFC008C737A6813440433BB60BB6801225A7030
:102B0C00FB68DAB2BB681A70FB689AB2BB68DA80F1
:102B1C00BB680022DA70BB6840229A60BB68002256
:102B2C00DA60BB6800225A61FB680133FB607B688A
:102B3C005B781A46FB689A42D4D80023FB6024E0E9
:102B4C00FA6813469B001344DB0003F55C737A6848
:102B5C0013440433BB60BB6800225A70FB68DAB2C2
:102B6C00BB681A70FB689AB2BB68DA80BB6800223B
:102B7C00DA70BB6840229A60BB680022DA60BB68DE
:102B8C0000225A61FB680133FB607B685B781A4654
:102B9C00FB689A42D4D87868FEF77CFA7868FEF71E
:102BAC00BFF978680021FEF7FFFA7868FEF7A2FB00
:102BBC007868FEF753FA1037BD4680BD80B584B0F7
:102BCC0000AF7860084611461A460346FB700B4668
:102BDC003B801346BB70FB785BB2002B0DDAFB78A5
:102BEC0003F07F0213469B001344DB0003F58C7348
:102BFC007A6813440433FB600CE0FB7803F07F022B
:102C0C0013469B001344DB0003F55C737A68134492
:102C1C000433FB60FB7803F07F03DAB2FB681A70B5
:102C2C00FB78DB09DBB21A46FB685A703A88FB6802
:102C3C009A60FB68BA78DA70FB685B78002B04D07A
:102C4C00FB681B789AB2FB68DA80BB78022B02D146
:102C5C00FB6800221A717868F968FEF74DFD0023B5
:102C6C0018461037BD4680BD80B584B000AF786083
:102C7C000B46FB70FB785BB2002B0DDAFB7803F094
:102C8C007F0213469B001344DB0003F58C737A68B8
:102C9C0013440433FB600CE0FB7803F07F02134613
:102CAC009B001344DB0003F55C737A681344043314
:102CBC00FB60FB7803F07F03DAB2FB681A70FB78D9
:102CCC00DB09DBB21A46FB685A707868F968FEF7C4
:102CDC0093FD002318461037BD4680BD80B586B0E5
:102CEC0000AFF8607A601A460B46FB7213463B81C4
:102CFC00FB7A03F07F0213469B001344DB0003F5C1
:102D0C005C73FA68134404337B617B697A68DA601C
:102D1C003A897B695A617B6900229A617B6900223E
:102D2C005A70FB7A03F07F03DAB27B691A70FB6886
:102D3C00DB78012B02D17A687B691A617B691B787D
:102D4C00002B04D1F8687969FEF7EEFE03E0F86811
:102D5C007969FEF7A9FD002318461837BD4680BDDA
:102D6C0080B586B000AFF8607A603B600B46FB72B2
:102D7C00FB7A03F07F0213469B001344DB0003F540
:102D8C008C73FA68134404337B617B6901225A709B
:102D9C00FB7A03F07F03DAB27B691A707B697A687D
:102DAC00DA607A687B691A617B6900229A617B69B7
:102DBC003A685A617B691B78002B04D1F8687969F1
:102DCC00FEF7B2FE03E0F8687969FEF76DFD0023AB
:102DDC0018461837BD4680BD80B584B000AF78600A
:102DEC000B46FB70FB785BB2002B0DDAFB7803F023
:102DFC007F0213469B001344DB0003F58C737A6847
:102E0C0013440433FB600AE0FA7813469B00134426
:102E1C00DB0003F55C737A6813440433FB60FB68D6
:102E2C0001229A70FB7803F07F03DAB2FB681A7008
:102E3C00FB78DB09DBB21A46FB685A707868F968D4
:102E4C00FEF75CFF002318461037BD4680BD00BF5F
:102E5C0080B584B000AF78600B46FB70FB785BB23A
:102E6C00002B0DDAFB7803F07F0213469B00134412
:102E7C00DB0003F58C737A6813440433FB600AE0BF
:102E8C00FA7813469B001344DB0003F55C737A68F5
:102E9C0013440433FB60FB6800229A70FB7803F048
:102EAC007F03DAB2FB681A70FB78DB09DBB21A46D7
:102EBC00FB685A707868F968FEF764FF00231846BF
:102ECC001037BD4680BD00BF80B582B000AF7860C2
:102EDC000B46FB70FB785BB2002B07DAFB7803F038
:102EEC007F0378681946FEF7F1F802E07868FEF780
:102EFC002BF9002318460837BD4680BD80B485B039
:102F0C0000AF78600B46FB700023FB60FB7803F08E
:102F1C007F03DAB2BB8962F30A13BB817B681B693E
:102F2C007A6812691168FA680A431A601437BD4648
:102F3C005DF8047B704700BF80B584B000AF78604B
:102F4C007B681B695B68FB603B7B6FF341033B73E6
:102F5C007B681B69FA685A600320FDF717FB103772
:102F6C00BD4680BD80B584B000AF78607B681B69BE
:102F7C005B68FB603B7B43F002033B737B681B6924
:102F8C00FA685A600320FDF701FB1037BD4680BD7F
:102F9C0080B584B000AF78600B46FB700023BB603B
:102FAC00FB785BB2002B0DDAFB7803F07F02134643
:102FBC009B001344DB0003F58C737A6813440433D1
:102FCC00FB600AE0FA7813469B001344DB0003F520
:102FDC005C737A6813440433FB607868F968FFF714
:102FEC003DF8B860BB6818461037BD4680BD00BFC1
:102FFC0080B586B000AFF8600B467A60FB72FB7A46
:10300C005BB2002B0DDAFB7A03F07F0213469B00B8
:10301C001344DB0003F58C73FA68134404337B61AF
:10302C000AE0FA7A13469B001344DB0003F55C7349
:10303C00FA68134404337B61F86879697A68FFF79E
:10304C0063F81837BD4680BD80B400AF094B002231
:10305C001A60084B00225A60064B00229A60054BFE
:10306C000022DA60034B044A5A61BD465DF8047BCA
:10307C00704700BF003C0140FFFF7F0080B485B06B
:10308C0000AF78600023FB60344BFB607B689B795E
:10309C00002B4FD03149314B1A687B681B68DB43DE
:1030AC0013400B602D492D4B5A687B681B68DB4322
:1030BC0013404B607B681B791A46FB681344FB601A
:1030CC00FB68FA6811687A6812680A431A60234927
:1030DC00224B9A687B681B68DB4313408B601F494B
:1030EC001E4BDA687B681B68DB431340CB607B6844
:1030FC005B79102B0ED11949184B9A687B681B68A9
:10310C0013438B601549154BDA687B681B681343B6
:10311C00CB601DE0114BFB607B685B791A46FB684A
:10312C001344FB60FB68FA6811687A6812680A43FA
:10313C001A600DE07B681B791A46FB681344FB6030
:10314C00FB68FA6811687A681268D2430A401A6000
:10315C001437BD465DF8047B704700BF003C01404E
:10316C0080B483B000AF78607B6800221A607B6803
:10317C0000221A717B680C225A717B6800229A71AA
:10318C000C37BD465DF8047B704700BF80B483B03C
:10319C0000AF78600549054B1A697B6813430B61D6
:1031AC000C37BD465DF8047B704700BF003C014006
:1031BC0080B485B000AF78600023FB73084B5A696C
:1031CC007B681340002B02D00123FB7301E000232A
:1031DC00FB73FB7B18461437BD465DF8047B7047C8
:1031EC00003C014080B483B000AF7860034A7B6838
:1031FC0053610C37BD465DF8047B7047003C0140C1
:10320C0080B485B000AF78600023FB730023BB60F3
:10321C000C4B1A687B681340BB600A4B5A697B687D
:10322C001340002B05D0BB68002B02D00123FB738D
:10323C0001E00023FB73FB7B18461437BD465DF899
:10324C00047B7047003C014080B483B000AF7860D1
:10325C00034A7B6853610C37BD465DF8047B7047AD
:10326C00003C014080B584B000AF78607B689B6DFA
:10327C009B68FB607B681B69D3F88430FA68134049
:10328C00FB603B7B03F00103DBB2002B21D000235E
:10329C00FB603B7B43F001033B737B689B6DFA68DF
:1032AC009A607B68DB78012B0DD17B689B6D1B6969
:1032BC00BB607B68D3F8A433BA68C2F312029A1AC3
:1032CC007B68C3F8B4230D4B1B681B68786801211D
:1032DC0098473B7B03F00203DBB2002B09D00023A1
:1032EC00FB603B7B43F002033B737B689B6DFA688E
:1032FC009A60012318461037BD4680BD4800002057
:10330C0080B586B000AF78607B681B695B6C7B61B5
:10331C007B681B695B6B3B613B695B08DB01DBB268
:10332C007A6913437B617B68DB699A687B6913401C
:10333C00BB603B7A03F00103DBB2002B1AD00223F3
:10334C00FB607B681B697A681269516BFA68D2431F
:10335C000A405A630023BB603B7A43F001033B7283
:10336C007B68DB69BA689A602F4B1B685B6878686E
:10337C00012198473B7A03F00203DBB2002B09D002
:10338C000023BB603B7A43F002033B727B68DB6932
:10339C00BA689A603B7A03F00803DBB2002B09D0C1
:1033AC000023BB603B7A43F008033B727B68DB690C
:1033BC00BA689A603B7A03F01003DBB2002B09D099
:1033CC000023BB603B7A43F010033B727B68DB69E4
:1033DC00BA689A603B7A03F04003DBB2002B09D049
:1033EC000023BB603B7A43F040033B727B68DB6994
:1033FC00BA689A603B7A23F07F03DBB2002B0DD0C6
:10340C007868012100F070FB0023BB603B7A43F02D
:10341C0080033B727B68DB69BA689A6001231846AB
:10342C001837BD4680BD00BF4800002080B586B06F
:10343C0000AF786000237B617868FDF7F5FE0346EA
:10344C00002B00F09C807868FDF712FF03463B616F
:10345C003B69002B01D1002392E0BB7C03F00803F5
:10346C00DBB2002B06D0786800F0FAF902467B69D3
:10347C0013437B61BB7C03F00403DBB2002B06D04F
:10348C00786800F01FF902467B6913437B613B7C33
:10349C0003F00203DBB2002B09D00023FB603B7B63
:1034AC0043F002033B737B68DB68FA685A61FB7C70
:1034BC0023F07F03DBB2002B06D0786800F064F8B1
:1034CC0002467B6913437B617B7C03F00803DBB210
:1034DC00002B06D0786800F097F802467B691343FE
:1034EC007B613B7C03F00803DBB2002B06D07868D1
:1034FC0000F05EFA02467B6913437B613B7C03F070
:10350C001003DBB2002B06D0786800F06BFA024691
:10351C007B6913437B617B7C03F01003DBB2002BD4
:10352C0006D0786800F052FB02467B6913437B613E
:10353C007B7C03F02003DBB2002B06D0786800F014
:10354C00DDFB02467B6913437B61BB7C03F01003FC
:10355C00DBB2002B06D0786800F00CFC02467B69CD
:10356C0013437B61BB7C03F02003DBB2002B06D042
:10357C00786800F019FC02467B6913437B617B6918
:10358C0018461837BD4680BD80B586B000AF786050
:10359C007B689B7A002B11D07B6803F586731B68C4
:1035AC00FB603B7B6FF341033B733B7B6FF300038F
:1035BC003B737B68D3F80C31FA681A6000233B61CB
:1035CC003B7C43F001033B747B681B697A6812698E
:1035DC0051683A69D2430A405A600A4B1B689B698E
:1035EC007868984700237B61FB7D43F08003FB7573
:1035FC007B68DB687A695A61012318461837BD4627
:10360C0080BD00BF4800002080B586B000AF786058
:10361C000023FB727B6893F81231FB72274B1B68FB
:10362C005B69786898477B681B699B68FB60002323
:10363C007B617B7D43F008037B757B68DB687A6973
:10364C005A617B689B7A002B32D03B7B03F00103E1
:10365C00DBB2002B2CD07B6893F81531012B27D1D2
:10366C00FB7ADBB2032B23D100233B613B7C43F081
:10367C0001033B747B68D3F80C317A68D2F80C21C7
:10368C0011683A690A431A603B7C43F002033B74AD
:10369C007B68D3F80C317A68D2F80C2111683A693E
:1036AC000A431A60064A064B1B6943F00603136172
:1036BC00012318461837BD4680BD00BF48000020C6
:1036CC0000ED00E080B586B000AF786000233B6170
:1036DC000023BB607868FEF7C3FB7861B4E07B69BC
:1036EC0003F00103002B00F0A9803B69DBB2786882
:1036FC00194600F073FB0346BB603B7A03F00103F1
:10370C00DBB2002B32D03B69012202FA03F3FB60DF
:10371C007B681B697A681269516BFA68D2430A405C
:10372C005A630023BB603B7A43F001033B727A6817
:10373C003B6904339B0013449B68BA689A60474BFF
:10374C001B685B683A69D2B27868114698477B6807
:10375C00DB78012B0AD13B69002B07D17B6893F8EE
:10376C001131042B02D17868FEF790FB3B7A03F001
:10377C000803DBB2002B0DD00023BB603B7A43F077
:10378C0008033B727A683B6904339B0013449B68C3
:10379C00BA689A603B7A03F01003DBB2002B0DD0B1
:1037AC000023BB603B7A43F010033B727A683B69A1
:1037BC0004339B0013449B68BA689A603B7A03F00D
:1037CC004003DBB2002B0DD00023BB603B7A43F0EF
:1037DC0040033B727A683B6904339B0013449B683B
:1037EC00BA689A603B7A03F00203DBB2002B0DD06F
:1037FC000023BB603B7A43F002033B727A683B695F
:10380C0004339B0013449B68BA689A603B7A23F09C
:10381C007F03DBB2002B11D07868396900F064F9B2
:10382C000023BB603B7A43F080033B727A683B69B0
:10383C0004339B0013449B68BA689A603B6901335C
:10384C003B617B695B087B617B69002B7FF447AF35
:10385C00012318461837BD4680BD00BF4800002024
:10386C0080B586B000AF786000233B610023FB601D
:10387C007868FEF7C3FA78618FE07B6903F0010387
:10388C00002B00F084803B69DBB278681946FEF7A8
:10389C00CBFA0346FB603B7B03F00103DBB2002B4E
:1038AC0048D00023FB603B7B43F001033B737A68F9
:1038BC003B6914339B0013445B68FA689A607B681D
:1038CC00DB78012B1FD17A683B6914339B001344BE
:1038DC005B681B69BB6079683A6913469B001344AB
:1038EC00DB000B4403F55E735B68BA68C2F312022B
:1038FC00991A78683A6913469B001344DB00034419
:10390C0003F562735960294B1B681B683A69D2B284
:10391C007868114698477B68DB78012B0AD13B69A4
:10392C00002B07D17B6893F81131052B02D17868F5
:10393C00FEF7ACFA3B7B03F00203DBB2002B0DD09D
:10394C000023FB603B7B43F002033B737A683B69CB
:10395C0014339B0013445B68FA689A603B7B03F05A
:10396C000803DBB2002B12D0104B1B689B687868E5
:10397C0098470023FB603B7B43F008033B737A685A
:10398C003B6914339B0013445B68FA689A603B698B
:10399C0001333B617B695B087B617B69002B7FF4A6
:1039AC006CAF012318461837BD4680BD4800002077
:1039BC0080B584B000AF7860094B1B68DB68786811
:1039CC0098470023FB603B7B43F008033B737B6809
:1039DC00DB68FA685A61012318461037BD4680BD72
:1039EC004800002080B586B000AF786000233B61B2
:1039FC003B7C43F010033B747B68DB687A68D268CD
:103A0C0091693A69D2430A409A617B68DB681B6A08
:103A1C00FB603B7BC3F30303DBB21A4613469B00EC
:103A2C001344DB0003F55C737A68134404337B6145
:103A3C00BB7BC3F34303DBB2013B052B46D801A28E
:103A4C0052F823F0D93A0008693A0008D93A00082C
:103A5C00D93A0008D93A0008B53A0008BA8947F6AD
:103A6C00F07313409BB2002B1DD07B69DA68BB89C5
:103A7C00C3F30A139BB2786811461A46FDF764F932
:103A8C007B69DB68BA89C2F30A1292B21A447B6969
:103A9C00DA607B699B69BA89C2F30A1292B21A4442
:103AAC007B699A6113E012E07B6803F2CC5378686F
:103ABC0019460822FDF748F97B699B69BA89C2F35C
:103ACC000A1292B21A447B699A6100E000BF7B68CB
:103ADC00DB687A68D26891693A690A439A61012372
:103AEC0018461837BD4680BD80B586B000AF7860EB
:103AFC00396000237B610023BB603A6813469B004E
:103B0C001344DB0003F58C737A6813440433FB60B5
:103B1C00FB685A69FB689B69D31A7B61FB689A68DE
:103B2C007B699A4202D2FB689B687B617B69033399
:103B3C009B083B617A683B6804339B0013449B6889
:103B4C009B69BB602EE0FB685A69FB689B69D31AC2
:103B5C007B61FB689A687B699A4202D2FB689B681E
:103B6C007B617B6903339B083B61FB68D9683B68CD
:103B7C00DAB27B699BB27868FDF7AAF8FB68DA6861
:103B8C007B691A44FB68DA60FB689A697B691A44A2
:103B9C00FB689A617A683B6804339B0013449B680A
:103BAC009B69BB603B891A463B699A4209D9FB6801
:103BBC009A69FB685B699A4203D2FB685B69002BCC
:103BCC00C1D1012318461837BD4680BD80B58AB0D7
:103BDC0000AF786000233B6100233B620023FB6154
:103BEC000023BB6100237B610023FB603B7C43F023
:103BFC0001033B747B681B697A68126951683A69E6
:103C0C00D2430A405A6078680021FDF75FFA00231E
:103C1C007B6212E07A687B6A04339B0013449B68D6
:103C2C00FF229A607A687B6A14339B0013445B68AA
:103C3C00FF229A607B6A01337B627B685B781A4651
:103C4C007B6A9A42E6D87B681B694FF0FF329A6117
:103C5C0001233B8401237B847B681B693A6ADA610C
:103C6C003B7F43F008033B773B7F43F001033B77FB
:103C7C003B7F43F002033B777B681B69FA695A610F
:103C8C007B681B69FA69C3F884203B7E43F001030F
:103C9C003B763B7E43F008033B763B7E43F00203CE
:103CAC003B767B681B69BA691A617B681B69BA69C8
:103CBC005A647B681B691B687B61BB8A6FF30A13B0
:103CCC00BB827B681B697A691A607868FEF7DEF83C
:103CDC000023FB607B7B43F010037B737B68DB680A
:103CEC00FA685A61044B1B681B6978689847012372
:103CFC0018462837BD4680BD4800002080B584B0EA
:103D0C0000AF78607868FDF7BBFC7B68DB68DB682C
:103D1C00BB607868FDF790FC0346032B0CD17B68E5
:103D2C0000229A707B684FF400729A807B7A092289
:103D3C0062F385037B720AE07B6801229A707B68D0
:103D4C0040229A807B7A052262F385037B727B6822
:103D5C00DB68BA68DA600023FB607B7B43F02003EE
:103D6C007B737B68DB68FA685A610123184610374D
:103D7C00BD4680BD80B584B000AF78600023FB6089
:103D8C00084B1B68DB6978689847BB7B43F01003D2
:103D9C00BB737B68DB68FA685A61012318461037DD
:103DAC00BD4680BD4800002080B584B000AF78606F
:103DBC000023FB60084B1B681B6A78689847BB7B29
:103DCC0043F02003BB737B68DB68FA685A610123FC
:103DDC0018461037BD4680BD4800002080B487B01F
:103DEC0000AF78600B46FB707B681B691B697B61BD
:103DFC007B681B695B6B3B61FB783A6922FA03F3C6
:103E0C00DB01DBB27A6913437B61FB787A6804339C
:103E1C009B0013449B689A687B691340FB60FB68AA
:103E2C0018461C37BD465DF8047B704780B400AF64
:103E3C00BD465DF8047B704780B400AFFEE700BF61
:103E4C0080B400AFFEE700BF80B400AFFEE700BF58
:103E5C0080B400AFFEE700BF80B400AFBD465DF894
:103E6C00047B704780B400AFBD465DF8047B70479F
:103E7C0080B400AFBD465DF8047B704780B400AFE2
:103E8C00BD465DF8047B704780B500AFFFF7F6FFC9
:103E9C0080BD00BF80B584B000AF78600B46FB706E
:103EAC007868812140220223FEF788FE7868012180
:103EBC0040220223FEF782FE786882210822032327
:103ECC00FEF77CFE0B4BFB60FB68043302221A707E
:103EDC00FB68053300221A70074B1B6898477868FB
:103EEC000121064A4023FEF7F9FE0023184610373D
:103EFC00BD4680BD5801002008000020900C002019
:103F0C0080B582B000AF78600B46FB707868812179
:103F1C00FEF7AAFE78680121FEF7A6FE78688221DA
:103F2C00FEF7A2FE034B5B68984700231846083740
:103F3C00BD4680BD0800002080B584B000AF78601D
:103F4C0039603A23FB81404BBB603B681B7803F024
:103F5C006003002B3FD0202B37D13B68DB88002B34
:103F6C0029D03B681B78DBB25BB2002B11DA374BE4
:103F7C009B683A68527811463A68D28808463449A8
:103F8C0098473B68DB88786831491A4601F048F855
:103F9C0019E03B685B781A462E4B1A603B68DB884D
:103FAC001A462D4B1A603B68DB88786828491A46FC
:103FBC0001F06AF807E0254B9B683A685278104686
:103FCC0000210022984700233AE07868396800F015
:103FDC0031FF022334E03B685B780A2B18D00B2BA3
:103FEC001CD0062B2BD13B685B881B0A9BB2212B68
:103FFC0007D11A4BBB603B68DB883A2B28BF3A23AE
:10400C00FB81FB897868B9681A4601F009F816E05B
:10401C0078681349012201F003F810E03B685B88D3
:10402C00DBB2002B06D13B685B88DBB21A460C4B2B
:10403C001A6003E07868396800F0FCFE00BF0023CA
:10404C0018461037BD4680BD7500002008000020C2
:10405C00D00C0020F4000020EC0500207E00002095
:10406C00D805002080B582B000AF78600A4B1B6881
:10407C00FF2B0BD0094B9B68074A1168084A126842
:10408C00084608499847044BFF221A60002318463B
:10409C000837BD4680BD00BFF4000020080000209A
:1040AC00EC050020D00C002080B584B000AF786007
:1040BC000B46FB701E4B1B78012B33D11D4B1B6821
:1040CC00002B03D11A4B00221A702BE0194B1B68E2
:1040DC00402B0FD9184B1B68FB814023BB81164B1F
:1040EC001B684033144A1360124B1B68403B114A47
:1040FC0013600FE0104B1B68FB810E4B1B68BB81E0
:10410C000D4B1A680B4B1B6813440B4A1360094B7D
:10411C0000221A60FB89094A1A44BB8978688121FC
:10412C00FEF71EFE002318461037BD4680BD00BFAB
:10413C00E8050020E4050020E0050020D80C002054
:10414C0080B584B000AF78600B46FB70FA78796864
:10415C0013469B001344DB000B4403F562735B684E
:10416C00FB81084B1B69FA89074811469847786808
:10417C000121054A4023FEF7B1FD002318461037F4
:10418C00BD4680BD08000020900C002080B582B098
:10419C0000AF7860084B1B685A1C07490A60282B33
:1041AC0005D1054B00221A60786800F007F800234F
:1041BC0018460837BD4680BDF005002080B584B098
:1041CC0000AF78602D4B1B78012B54D02C4B1B6807
:1041DC00B3F5006F02D12A4B00221A60284B1A68E3
:1041EC00284B1B689A4203D1244B00221A7042E0E0
:1041FC00234B1A68234B1B689A4206D9204B1B6829
:10420C00C3F50063204A136006E01E4B1A681C4B72
:10421C001B68D31A1C4A13601B4B1B68402B0FD90D
:10422C00174B1B68FB814023BB81154B1B6840332C
:10423C00134A1360144B1B68403B134A13600FE086
:10424C000F4B1B68FB81104B1B68BB810C4B1A6816
:10425C000D4B1B6813440A4A13600B4B00221A6067
:10426C00064B01221A70FB89084A1A44BB897868EC
:10427C008121FEF775FD1037BD4680BDE805002095
:10428C00E0050020DC050020E4050020D80C00200F
:10429C0080B483B000AF03463960FB713B684322A6
:1042AC001A80034B18460C37BD465DF8047B7047EB
:1042BC006C00002080B483B000AF03463960FB7102
:1042CC003B6843221A80034B18460C37BD465DF8F9
:1042DC00047B7047B000002080B500AF114A114B31
:1042EC001B6843F0010313600E4B00229A600D4AC9
:1042FC000C4B1B6823F0847323F480331360094B3D
:10430C00094A5A60074A074B1B6823F48023136041
:10431C00044B0022DA6000F087F8044B4FF0006287
:10432C009A6080BD003802401030002400ED00E09F
:10433C0080B487B000AF00233B6100237B61022374
:10434C00FB600023BB6002237B60324B9B6803F055
:10435C000C033B613B69042B07D0082B09D0002BC5
:10436C003FD12D4B2D4A1A603FE02B4B2C4A1A6043
:10437C003BE0284B5B6803F480039B0DBB60254B33
:10438C005B6803F03F037B60BB68002B0DD0244AB5
:10439C007B68B2FBF3F21F4B596847F6C0730B40B6
:1043AC009B0903FB02F37B610CE01C4A7B68B2FBAC
:1043BC00F3F2184B596847F6C0730B409B0903FB8B
:1043CC0002F37B61134B5B6803F440331B0C01332A
:1043DC005B00FB607A69FB68B2FBF3F30E4A136077
:1043EC0003E00D4B0D4A1A6000BF0A4B9B6803F0AB
:1043FC00F0031B090B4AD35CDBB23B61064B1A681A
:10440C003B6922FA03F3044A13601C37BD465DF87E
:10441C00047B704700380240280100200024F4007F
:10442C0000127A002C01002080B483B000AF00236E
:10443C007B6000233B60424A414B1B6843F4803352
:10444C0013603F4B1B6803F400333B607B68013304
:10445C007B603B68002B03D17B68B3F5A04FF0D198
:10446C00374B1B6803F40033002B02D001233B6055
:10447C0001E000233B603B68012B5CD1304A304BA0
:10448C001B6C43F0805313642E4A2E4B1B6843F471
:10449C00404313602A4A2A4B9B689360284A284B56
:1044AC009B6843F400439360254A254B9B6843F477
:1044BC00A0539360224B244A5A60214A204B1B681C
:1044CC0043F08073136000BF1D4B1B6803F0007337
:1044DC00002BF9D01B4A1B4B1B6843F48033136031
:1044EC0000BF184B5B6803F48033002BF9D0154ADE
:1044FC00144B1B6843F40033136000BF114B5B6813
:10450C0003F40033002BF9D0104B40F205721A6003
:10451C000B4A0B4B9B6823F003039360084A084B30
:10452C009B6843F00203936000BF054B9B6803F04C
:10453C000C03082BF9D10C37BD465DF8047B704792
:10454C00003802400070004008544007003C024014
:10455C0080B584B000AF786039600023FB733B6892
:10456C005B78092B39D801A252F823F0C945000811
:10457C00DD450008E7450008D3450008E74500087D
:10458C00AB450008A1450008E7450008BF450008F9
:10459C00B54500087868396800F036F922E078688B
:1045AC00396800F059FA1DE07868396800F092FA21
:1045BC0018E07868396800F007FB13E07868396810
:1045CC0000F032FB0EE07868396800F057FB09E028
:1045DC007868396800F0BEFB04E07868396800F050
:1045EC0029FC00BFFB7B18461037BD4680BD00BFC1
:1045FC0080B584B000AF786039600023FB737B68B2
:10460C0093F81231032B1CD13B689B88DBB2012B36
:10461C0011D87B68D3F8E4359B687868396898477B
:10462C003B68DB88002B0BD1FB7B002B08D1786817
:10463C0000F05EFD0AE07868396800F0FBFB05E0ED
:10464C0004E07868396800F0F5FB00BFFB7B184686
:10465C001037BD4680BD00BF80B584B000AF786018
:10466C0039600023FB733B689B88BB733B685B78AA
:10467C00012B39D0032B02D0002B6BD0BCE07B6814
:10468C0093F81231022B02D0032B0DD026E0BB7B0A
:10469C00002B08D0BB7B802B05D0BB7B78681946E0
:1046AC00FEF79AFB1FE01EE03B685B88002B0AD1EB
:1046BC00BB7B002B07D0BB7B802B04D0BB7B7868EB
:1046CC001946FEF789FB7B68D3F8E4359B6878685C
:1046DC0039689847786800F00BFD04E07868396811
:1046EC0000F0A8FB00BF87E07B6893F81231022B27
:1046FC0002D0032B0DD027E0BB7B002B08D0BB7B5B
:10470C00802B05D0BB7B78681946FEF765FB20E053
:10471C001FE03B685B88002B15D1BB7B002B0ED0B8
:10472C00BB7B802B0BD0BB7B78681946FEF790FBCC
:10473C007B68D3F8E4359B68786839689847786863
:10474C0000F0D6FC05E004E07868396800F072FBF4
:10475C0000BF51E07B6893F81231022B02D0032B7F
:10476C000DD043E0BB7B002B08D0BB7B802B05D04E
:10477C00BB7B78681946FEF72FFB3CE03BE0BB7B2C
:10478C005BB2002B15DABB7B03F07F027968134612
:10479C009B001344DB000B4403F58C739B79002BBB
:1047AC0003D0184B01221A601AE0164B00221A6033
:1047BC0016E0BB7B5BB2002B12DBBA7B796813462D
:1047CC009B001344DB000B4403F55C739B79002BBB
:1047DC0003D00C4B01221A6002E00A4B00221A6033
:1047EC0078680849022200F01BFC04E078683968FC
:1047FC0000F020FB00BF00BFFB7B18461037BD4606
:10480C0080BD00BFF405002080B584B000AF786097
:10481C0039603B685B881B0A9BB2013B062B00F29C
:10482C00FB8001A252F823F051480008834800088D
:10483C00D5480008254A0008254A0008A549000863
:10484C00F14900087B68D3F8EC351B687A689178DD
:10485C0007F10A02084611469847F8603B68DB8866
:10486C00402B04D07B6893F81231012B02D1082322
:10487C007B81D6E0D5E07B68D3F8E4359B6A7A6817
:10488C00917807F10A02084611469847F8607B6850
:10489C009B78012B0FD17B681B7A012B0BD17B688A
:1048AC00D3F8E435DB6A7A68917807F10A02084696
:1048BC0011469847F860FB68013302221A707B6836
:1048CC00FA68C3F8F025ACE03B685B88DBB2052BDB
:1048DC005CD801A252F823F0FD48000817490008E3
:1048EC00314900084B490008654900087F49000818
:1048FC007B68D3F8EC355B687A68917807F10A022B
:10490C00084611469847F86045E07B68D3F8EC35CB
:10491C009B687A68917807F10A0208461146984715
:10492C00F86038E07B68D3F8EC35DB687A6891780E
:10493C0007F10A02084611469847F8602BE07B689D
:10494C00D3F8EC351B697A68917807F10A020846AE
:10495C0011469847F8601EE07B68D3F8EC355B692C
:10496C007A68917807F10A02084611469847F86070
:10497C0011E07B68D3F8EC359B697A68917807F184
:10498C000A02084611469847F86004E078683968CE
:10499C0000F050FA5AE044E07B689B78002B1CD165
:1049AC007B68D3F8E4359B6A7A68917807F10A0240
:1049BC00084611469847F860FB689A7B254B1A719C
:1049CC00FB68DA7B234B5A71FB681A7C214B9A717A
:1049DC00204BFB600A237B8123E07868396800F068
:1049EC0029FA33E07B689B78002B10D17B68D3F8D5
:1049FC00E435DB6A7A68917807F10A0208461146B9
:104A0C009847F860FB68013307221A7009E0786850
:104A1C00396800F00FFA19E07868396800F00AFA82
:104A2C0014E07B89002B11D03B68DB88002B0DD068
:104A3C003B68DA887B89934228BF13469BB27B8103
:104A4C007B897868F9681A4600F0EAFA1037BD4697
:104A5C0080BD00BF6C01002080B584B000AF7860D1
:104A6C0039603B689B88002B2DD13B68DB88002B81
:104A7C0029D13B685B88DBB203F07F03FB737B6857
:104A8C0093F81231032B04D17868396800F0D2F90D
:104A9C0018E07B68FA7B83F81421FB7B7868194655
:104AAC00FEF72CFA786800F023FBFB7B002B04D07C
:104ABC007B68022283F8122104E07B68012283F8D0
:104ACC00122104E003E07868396800F0B3F910377C
:104ADC00BD4680BD80B582B000AF786039603B6860
:104AEC005B88DAB2374B1A70364B1B78012B04D922
:104AFC007868396800F09EF960E07B6893F81231B1
:104B0C00022B02D0032B1BD053E02E4B1B78002B17
:104B1C0012D02C4B1A787B6883F810217B68032207
:104B2C0083F81221274B1B7878681946FDF714FF80
:104B3C00786800F0DDFA41E0786800F0D9FA3DE0E1
:104B4C00204B1B78002B12D17B68022283F8122198
:104B5C001C4B1A787B6883F810211A4B1B787868E9
:104B6C001946FDF711FF786800F0C2FA20E07B6867
:104B7C0093F81021134B1B789A4215D07B6893F84D
:104B8C00103178681946FDF7FFFE0E4B1A787B68DA
:104B9C0083F810210B4B1B7878681946FDF7DCFE67
:104BAC00786800F0A5FA03E0786800F0A1FA05E057
:104BBC0004E07868396800F03DF900BF0837BD465D
:104BCC0080BD00BF0006002080B582B000AF7860C9
:104BDC0039603B68DB88012B04D07868396800F0B9
:104BEC0029F91BE07B6893F81231022B02D0032BBE
:104BFC0006D00EE078680B49012200F011FA0DE0A6
:104C0C007B6803F5887378681946012200F008FA6E
:104C1C0004E07868396800F00DF900BF0837BD462C
:104C2C0080BD00BFF805002080B582B000AF786071
:104C3C0039607B6893F81231023B012B13D80E4B71
:104C4C0001221A607B68D3F81831002B05D00A4B6F
:104C5C001B6843F00203084A136078680649022275
:104C6C0000F0DEF904E07868396800F0E3F800BF82
:104C7C000837BD4680BD00BFFC05002080B584B060
:104C8C0000AF786039600023FB733B685B88012BB5
:104C9C000ED17B680122C3F818217B68D3F8E43568
:104CAC009B68786839689847786800F021FA4BE07F
:104CBC003B685B88022B47D13B689B88DBB2002B9F
:104CCC0042D17B681B695B68BB603B689B881B0A95
:104CDC009BB2FB73FB7B013B042B2BD801A252F83C
:104CEC0023F000BF054D0008114D00081D4D0008B4
:104CFC00294D0008354D00083B7A012262F306135A
:104D0C003B7217E03B7A022262F306133B7211E00E
:104D1C003B7A032262F306133B720BE03B7A0422CC
:104D2C0062F306133B7205E03B7A052262F306132D
:104D3C003B7200BF064ABB6813607B68012283F894
:104D4C001621786800F0D4F91037BD4680BD00BF3D
:104D5C008C0C002080B582B000AF786039607B6825
:104D6C0093F81231023B012B13D83B685B88012B63
:104D7C000ED17B680022C3F818217B68D3F8E43588
:104D8C009B68786839689847786800F0B1F905E055
:104D9C0004E07868396800F04DF800BF0837BD466C
:104DAC0080BD00BF80B483B000AF786039607B6891
:104DBC0093F8CC253B681A707B6893F8CD253B683B
:104DCC005A707B6893F8CE359AB27B6893F8CF35DE
:104DDC009BB21B029BB213449AB23B685A807B680D
:104DEC0093F8D0359AB27B6893F8D1359BB21B02FD
:104DFC009BB213449AB23B689A807B6893F8D23585
:104E0C009AB27B6893F8D3359BB21B029BB21344C6
:104E1C009AB23B68DA803B68DB881A467B68C3F839
:104E2C0040217B68012283F811210C37BD465DF8C7
:104E3C00047B704780B582B000AF786039607868C9
:104E4C008021FDF7C9FF78680021FDF7C5FF786860
:104E5C00FDF71CF80837BD4680BD00BF80B586B095
:104E6C0000AFF860B9607A600023FB75FB68002B1B
:104E7C0033D0F86800F034F8034601339BB25B0082
:104E8C009AB27B681A80FB7D5A1CFA751A46BB686D
:104E9C0013447A681288D2B21A70FB7D5A1CFA75C8
:104EAC001A46BB68134403221A7012E0FB7D5A1C8D
:104EBC00FA751A46BB681A44FB68591CF9601B78D2
:104ECC001370FB7D5A1CFA751A46BB6813440022FA
:104EDC001A70FB681B78002BE8D11837BD4680BDD3
:104EEC0080B485B000AF78600023FB7305E0FB7BDA
:104EFC000133FB737B6801337B607B681B78002B71
:104F0C00F5D1FB7B18461437BD465DF8047B704722
:104F1C0080B483B000AF03463960FB713B6812224A
:104F2C001A80034B18460C37BD465DF8047B70475E
:104F3C005801002080B483B000AF03463960FB7188
:104F4C003B6804221A80034B18460C37BD465DF8AB
:104F5C00047B70477801002080B582B000AF034617
:104F6C003960FB71044805493A68FFF777FF034B3A
:104F7C0018460837BD4680BDB85D0008D81400201F
:104F8C0080B582B000AF03463960FB710448054917
:104F9C003A68FFF763FF034B18460837BD4680BDE0
:104FAC00DC5D0008D814002080B582B000AF034649
:104FBC003960FB71044805493A68FFF74FFF034B12
:104FCC0018460837BD4680BDF05D0008D814002097
:104FDC0080B582B000AF03463960FB7104480549C7
:104FEC003A68FFF73BFF034B18460837BD4680BDB8
:104FFC00005E0008D814002080B582B000AF0346D4
:10500C003960FB71044805493A68FFF727FF034BE9
:10501C0018460837BD4680BD0C5E0008D814002029
:10502C0080B586B000AFF860B9601346FB800023F2
:10503C00FB75FA88FB68C3F83C21FA88FB68C3F857
:10504C003821FB68022283F81121FB88F8680021C3
:10505C00BA68FDF785FEFB7D18461837BD4680BD46
:10506C0080B586B000AFF860B9601346FB800023B2
:10507C00FB75FB88F8680021BA68FDF771FEFB7DB3
:10508C0018461837BD4680BD80B586B000AFF860B5
:10509C00B9601346FB800023FB75FA88FB68C3F8E4
:1050AC009423FA88FB68C3F89023FB68032283F8E7
:1050BC001121FB88F8680021BA68FDF70FFEFB7D13
:1050CC0018461837BD4680BD80B586B000AFF86075
:1050DC00B9601346FB800023FB75FB88F868002140
:1050EC00BA68FDF7FBFDFB7D18461837BD4680BD41
:1050FC0080B584B000AF78600023FB737B6804221A
:10510C0083F811217868002100220023FDF728FE86
:10511C007868FCF7BBFEFB7B18461037BD4680BD9C
:10512C0080B584B000AF78600023FB737B680522E8
:10513C0083F811217868002100220023FDF7CEFDB1
:10514C007868FCF7A3FEFB7B18461037BD4680BD84
:10515C0080B483B000AF78600B46FB70FA78796846
:10516C0013469B001344DB000B4403F562735B682E
:10517C009BB218460C37BD465DF8047B704700BFE8
:10518C0080B400AF104A104B1B6843F0010313604E
:10519C000D4B00229A600C4A0B4B1B6823F0847356
:1051AC0023F480331360084B084A5A60064A064BB6
:1051BC001B6823F480231360034B0022DA60BD4686
:1051CC005DF8047B704700BF0038024010300024AB
:1051DC0080B483B000AF0346FB71054B00221A70FC
:1051EC00034AFB7913700C37BD465DF8047B70479E
:1051FC000238024080B582B000AF00233B60002330
:10520C00FB710023BB71312000F086FC0346BB719F
:10521C003B6801333B603B68B3F5A04F02D0BB79D0
:10522C00002BF0D0312000F077FC0346002B02D08D
:10523C000123FB7101E00023FB71FB791846083751
:10524C00BD4680BD80B485B000AF0346FB71002322
:10525C00FB600A4B1B68FB60FB6823F0F803FB60E8
:10526C00FB79DB00FA681343FB60044AFB681360AC
:10527C001437BD465DF8047B704700BF0038024010
:10528C0080B483B000AF0346FB71044AFB79136012
:10529C000C37BD465DF8047B704700BF00004742E9
:1052AC0080B483B000AF0346FB710C4B00221A7024
:1052BC000A4B00221A70FB79012B02D0042B04D06C
:1052CC0007E0064B01221A7003E0044B05221A700A
:1052DC0000BF0C37BD465DF8047B70477038024048
:1052EC0080B483B000AF0346FB71044AFB791360B2
:1052FC000C37BD465DF8047B704700BF800E4742FB
:10530C0080B485B000AFF860B9607A603B600A4940
:10531C007B689A01BB681A433B685B08013B1B0422
:10532C001A43FB681A43BB691B0613434B601437C3
:10533C00BD465DF8047B70470038024080B483B0F2
:10534C0000AF0346FB71044AFB7913600C37BD4672
:10535C005DF8047B704700BF6000474280B483B0A7
:10536C0000AF7860396006497B689A013B681B077F
:10537C001343C1F884300C37BD465DF8047B70478D
:10538C000038024080B483B000AF0346FB71044A7E
:10539C00FB7913600C37BD465DF8047B704700BF8A
:1053AC006800474280B483B000AF0346FB71044AE7
:1053BC00FB7913600C37BD465DF8047B704700BF6A
:1053CC004C00474280B485B000AF78603960002350
:1053DC00FB600A4B9B68FB60FB6823F0EC63FB6093
:1053EC007A683B681343FA681343FB60034AFB6813
:1053FC0093601437BD465DF8047B7047003802405B
:10540C0080B485B000AF786039600023FB600A4B34
:10541C009B68FB60FB6823F07843FB607A683B6811
:10542C001343FA681343FB60034AFB689360143719
:10543C00BD465DF8047B70470038024080B485B0EF
:10544C0000AF78600023FB60094B9B68FB60FB6836
:10545C0023F00303FB60FA687B681343FB60044A88
:10546C00FB6893601437BD465DF8047B704700BF42
:10547C000038024080B400AF054B9B68DBB203F0F0
:10548C000C03DBB21846BD465DF8047B704700BFC9
:10549C000038024080B485B000AF78600023FB6018
:1054AC00094B9B68FB60FB6823F0F003FB60FA6818
:1054BC007B681343FB60044AFB6893601437BD465A
:1054CC005DF8047B704700BF0038024080B485B0A3
:1054DC0000AF78600023FB60094B9B68FB60FB68A6
:1054EC0023F4E053FB60FA687B681343FB60044AC7
:1054FC00FB6893601437BD465DF8047B704700BFB2
:10550C000038024080B485B000AF78600023FB60A7
:10551C00094B9B68FB60FB6823F46043FB607B6872
:10552C00DB00FA681343FB60034AFB689360143793
:10553C00BD465DF8047B70470038024080B489B0EA
:10554C0000AF78600023BB6100237B610023FB610B
:10555C0002233B610023FB600223BB60484B9B682A
:10556C0003F00C03BB61BB69042B07D0082B09D0DB
:10557C00002B3FD17B68434A1A603FE07B68424A6C
:10558C001A603BE03E4B5B6803F480039B0DFB60B1
:10559C003B4B5B6803F03F03BB60FB68002B0DD0FB
:1055AC00394ABB68B2FBF3F2354B596847F6C07306
:1055BC000B409B0903FB02F3FB610CE0314ABB6817
:1055CC00B2FBF3F22E4B596847F6C0730B409B09A4
:1055DC0003FB02F3FB612A4B5B6803F440331B0CA7
:1055EC0001335B003B61FA693B69B2FBF3F27B6808
:1055FC001A6003E07B68234A1A6000BF204B9B684B
:10560C0003F0F003BB61BB691B09BB611F4ABB699B
:10561C0013441B78DBB27B617B681A687B69DA40C8
:10562C007B685A60164B9B6803F4E053BB61BB6903
:10563C009B0ABB61154ABB6913441B78DBB27B61C7
:10564C007B685A687B69DA407B689A600C4B9B6874
:10565C0003F46043BB61BB695B0BBB610B4ABB6969
:10566C0013441B78DBB27B617B685A687B69DA4038
:10567C007B68DA602437BD465DF8047B704700BF59
:10568C00003802400024F40000127A007C01002053
:10569C0080B485B000AF78600023FB607B6803F4B6
:1056AC004073B3F5407F11D10F4B9B68FB60FB68D7
:1056BC0023F4F813FB607B6823F0704323F44073EE
:1056CC00FA681343FB60084AFB6893600649064B73
:1056DC001A6F7B68C3F30B0313430B671437BD4678
:1056EC005DF8047B704700BF0038024080B483B083
:1056FC0000AF0346FB71044AFB7913600C37BD46BF
:10570C005DF8047B704700BF3C0E474280B483B009
:10571C0000AF0346FB71044AFB7913600C37BD469E
:10572C005DF8047B704700BF400E474280B483B0E5
:10573C0000AF7860034A7B6813600C37BD465DF898
:10574C00047B70475C01474280B483B000AF786043
:10575C000B46FB70FB78002B06D00949084B1A6BE3
:10576C007B6813430B6306E00549054B1A6B7B689A
:10577C00DB4313400B630C37BD465DF8047B70476D
:10578C000038024080B483B000AF78600B46FB70E9
:10579C00FB78002B06D00949084B5A6B7B681343E6
:1057AC004B6306E00549054B5A6B7B68DB431340A2
:1057BC004B630C37BD465DF8047B704700380240E4
:1057CC0080B483B000AF78600B46FB70FB78002B85
:1057DC0006D00949084B9A6B7B6813438B6306E030
:1057EC000549054B9A6B7B68DB4313408B630C3785
:1057FC00BD465DF8047B70470038024080B483B02E
:10580C0000AF78600B46FB70FB78002B06D0094983
:10581C00084B1A6C7B6813430B6406E00549054B77
:10582C001A6C7B68DB4313400B640C37BD465DF888
:10583C00047B70470038024080B483B000AF7860BE
:10584C000B46FB70FB78002B06D00949084B5A6CB1
:10585C007B6813434B6406E00549054B5A6C7B6827
:10586C00DB4313404B640C37BD465DF8047B70473B
:10587C000038024080B483B000AF78600B46FB70F8
:10588C00FB78002B06D00949084B1A697B68134337
:10589C000B6106E00549054B1A697B68DB43134035
:1058AC000B610C37BD465DF8047B70470038024035
:1058BC0080B483B000AF78600B46FB70FB78002B94
:1058CC0006D00949084B5A697B6813434B6106E0C3
:1058DC000549054B5A697B68DB4313404B610C3718
:1058EC00BD465DF8047B70470038024080B483B03D
:1058FC0000AF78600B46FB70FB78002B06D0094993
:10590C00084B9A697B6813438B6106E00549054B8C
:10591C009A697B68DB4313408B610C37BD465DF89D
:10592C00047B70470038024080B483B000AF7860CD
:10593C000B46FB70FB78002B06D00949084B1A6A02
:10594C007B6813430B6206E00549054B1A6A7B68BA
:10595C00DB4313400B620C37BD465DF8047B70478C
:10596C000038024080B483B000AF78600B46FB7007
:10597C00FB78002B06D00949084B5A6A7B68134305
:10598C004B6206E00549054B5A6A7B68DB431340C2
:10599C004B620C37BD465DF8047B70470038024003
:1059AC0080B483B000AF78600B46FB70FB78002BA3
:1059BC0006D00949084B1A6D7B6813430B6506E04A
:1059CC000549054B1A6D7B68DB4313400B650C379F
:1059DC00BD465DF8047B70470038024080B483B04C
:1059EC0000AF78600B46FB70FB78002B06D00949A2
:1059FC00084B5A6D7B6813434B6506E00549054B14
:105A0C005A6D7B68DB4313404B650C37BD465DF824
:105A1C00047B70470038024080B483B000AF7860DC
:105A2C000B46FB70FB78002B06D00949084B9A6D8E
:105A3C007B6813438B6506E00549054B9A6D7B68C3
:105A4C00DB4313408B650C37BD465DF8047B704718
:105A5C000038024080B483B000AF78600B46FB7016
:105A6C00FB78002B06D00949084B1A6E7B68134350
:105A7C000B6606E00549054B1A6E7B68DB43134049
:105A8C000B660C37BD465DF8047B7047003802404E
:105A9C0080B483B000AF78600B46FB70FB78002BB2
:105AAC0006D00949084B5A6E7B6813434B6606E0D7
:105ABC000549054B5A6E7B68DB4313404B660C372C
:105ACC00BD465DF8047B70470038024080B483B05B
